:020000040800F2
:10000000F0050020450100087B190008831700084F
:10001000791900086B0200089D220008000000000A
:10002000000000000000000000000000A51900080A
:1000300073020008000000007D190008A7190008DD
:100040005F0100085F0100085F0100085F01000810
:100050005F0100085F0100085F0100085F01000800
:100060005F0100085F0100085F0100085F010008F0
:100070005F0100085F0100085F0100085F010008E0
:100080005F0100085F0100085F0100085F010008D0
:100090005F0100085F0100085F0100085F010008C0
:1000A0005F0100085F0100085F0100085F010008B0
:1000B0005F0100085F0100085F0100085F010008A0
:1000C0005F0100085F0100085F0100085F01000890
:1000D0005F0100085F0100085F0100085F01000880
:1000E0005F0100085F0100085F0100085F01000870
:1000F0005F0100085F0100085F0100085F01000860
:100100005F0100085F0100085F0100085F0100084F
:100110005F0100085F0100081D1A00085F01000868
:100120005F0100085F0100085F0100085F0100082F
:10013000DFF80CD000F062F80048004755230008B3
:10014000F00500200648804706480047FEE7FEE726
:10015000FEE7FEE7FEE7FEE7FEE7FEE7FEE7FEE777
:100160001B1A00083101000840EA01039B0703D075
:1001700009E008C9121F08C0042AFAD203E011F8E6
:10018000013B00F8013B521EF9D27047D2B201E0A8
:1001900000F8012B491EFBD270470022F6E710B58C
:1001A00013460A4604461946FFF7F0FF204610BDE5
:1001B000421C10F8011B0029FBD1801A7047A0E8EF
:1001C000004FF0C040F804DB01B5AFF30080BDE89C
:1001D000024001C10020704700F12C080C4658F87D
:1001E000040DAFF3008058F8040D8546200008BFC9
:1001F000012038E9F00018E9004F7047064C074D20
:1002000006E0E06840F0010394E8070098471034E6
:10021000AC42F6D3FFF790FFF82600081827000835
:1002200070B5044620688168C943C9071BD181683D
:1002300021F00101816000F07BFA05460EE000F03C
:1002400077FA401B022809D9A06A40F01000A0628A
:10025000E06A40F00100E062012070BD2068806823
:10026000C043C007EBD0002070BDFEE77047704769
:100270007047704772B6FEE7F8B500230025009579
:1002800090F82420012A12D0012280F824204A6804
:100290001F26072A0DD20468676B521E02EB8202EA
:1002A0009640B7430E689640374367631AE00220D2
:1002B000F8BD0D2A0BD20468276BD21F02EB820215
:1002C0009640B7430E689640374327630AE00468B8
:1002D000E76A0D3A02EB82029640B7430E689640F9
:1002E0003743E7620A6807260A2A0BD30468E768DF
:1002F0000A3A02EB42029640B7438E689640374373
:10030000E76009E00468276902EB42029640B743C0
:100310008E689640374327610A68102A01D0112A57
:1003200023D1144C0268A2421AD1946824021CD42E
:10033000946844F4000494600968102915D10E49AA
:100340000E4A0968B1FBF2F101EB8101490000910D
:1003500002E00099491E009100990029F9D104E0BA
:10036000816A41F020018162012380F824501846FF
:10037000F8BD0000002401401800002040420F009A
:100380002DE9F04104460025002C03D0A06A002688
:1003900018B108E00120BDE8F081E66284F824602D
:1003A000204600F07FF82046FFF73AFFA16AC90611
:1003B00000D428B1A06A40F01000A0620120EAE752
:1003C000A16A21F4885141F00201A16232492368F7
:1003D0008B4206D1E169B1F5402F03D14FF40021E2
:1003E00000E0E169277B41EA470261680A43A168AE
:1003F0004FF4807C614508D0012906D0002194F893
:100400001480B8F1010F02D00AE06146F7E7C7B1E6
:10041000A76A47F02007A762E76A47F00107E7628B
:100420005F6827F469470F435F6021688B681B4F43
:100430003B4013438B60A168614509D0012907D077
:1004400009E0A7697F1E41EA473141F40061E7E70F
:10045000218A491E0D052168CB6A23F470032B43C2
:10046000CB62216889680E4B1940914207D1E66240
:10047000A16A21F0020141F00101A1628BE7A06AAB
:1004800020F0020040F01000A062E06A40F001009D
:10049000E06201207FE70000003C0140FDF7E1FF42
:1004A000FE0E1FFF00B585B000210191029103915E
:1004B000049100680E49884217D10E48816941F4C1
:1004C00000718161816901F400710091816941F0DD
:1004D00004018161806900F0040000900320019014
:1004E000029001A9044800F009F805B000BD000021
:1004F0000024014000100240000801402DE9F84F9F
:1005000000240023DFF8E0914FF00F0809F1040AFE
:100510000AF1040B0BF1040EDFE00127A7403A407B
:10052000BA4275D1DFF8C4C14D68A5EB0C0665452C
:100530002BD00DDC032D34D005DC35B3012D19D0C3
:10054000022D2FD11BE0112D16D0122D2AD119E02A
:10055000B6F5881F19D006DCB6F5803F15D0B6F584
:10056000801F1FD111E0B6F5001F0ED0B6F5041F95
:1005700018D10AE0CB6815E0CB681B1D12E0CB68F0
:1005800008330FE0CB680C330CE08B6823B1012BF0
:1005900004D00823476105E0042303E00823076132
:1005A00000E00023FF2A01D8054601E000F1040520
:1005B00002D84FEA840603E0A4F108064FEA860653
:1005C0002F6808FA06FC27EA0C0703FA06F647EA42
:1005D00006072F604D68ED007ED5454DAE6946F0AB
:1005E0000106AE61AD6905F001050095414D24F0AD
:1005F00003067719BE68A5072D0F08FA05FC26EA41
:100600000C06DFF8F4C0604503D14FF0000C25E084
:1006100062E0DFF8E8C0604502D14FF0010C1DE058
:10062000DFF8DCC0604502D14FF0020C16E0DFF8C5
:10063000D4C0604502D14FF0030C0FE0DFF8C8C012
:10064000604502D14FF0040C08E0DFF8C0C06045FF
:1006500002D14FF0050C01E04FF0060C0CFA05FC3E
:100660004CEA060CC7F808C04D68ED0305D5D9F86B
:1006700000501543C9F8005004E0D9F800509543E4
:10068000C9F800504D68AD0305D5DAF800501543A0
:10069000CAF8005004E0DAF800509543CAF8005058
:1006A0004D68ED0205D5DBF800501543CBF800503E
:1006B00004E0DBF800509543CBF800504D68AD02E4
:1006C00005D5DEF800501543CEF8005004E0DEF802
:1006D00000509543CEF80050641C0A6832FA04F5C5
:1006E0007FF41BAFBDE8F88F00040140000011103B
:1006F000001002400000014000080140000C0140D1
:10070000001001400014014000180140001C01408D
:10071000C26821EA02030A4043EA024101617047CC
:10072000002A01D00161704709040161704700008F
:1007300001488068704700000C0000200248816872
:1007400002781144816070470C00002010B5074802
:10075000016841F010010160032000F077F80020EB
:1007600000F006F800F026F8002010BD002002403E
:1007700070B504460D4D4FF47A712878B1FBF0F056
:100780000B490968B1FBF0F000F0C4FB08B101208F
:1007900070BD102C07D200222146501E00F036F802
:1007A0006C60002070BD012070BD00000C000020B6
:1007B0001800002008B50C48816941F001018161F1
:1007C000816901F001010091C16941F08051C1616D
:1007D000C06900F0805000900449486820F0E06053
:1007E00040F00070486008BD001002400000014069
:1007F000002809DB00F01F02012191404009800020
:1008000000F1E020C0F8001170470000F0B40D4680
:100810000D4B1B68C3F30223C3F10704042C00D95A
:100820000424191D072901D2002300E0DB1E012644
:1008300006FA04F1491E294099409E40761E164052
:100840003143F0BC01F02BBD0CED00E000F00701DE
:10085000054A10684FF6FF03184040EA012003499B
:1008600008431060704700000CED00E00000FA053E
:100870002DE9F8430446DFF8F8802078C0075FD000
:100880000027D8F81C00C0000BD4D8F81C0040F09A
:100890008050C8F81C00D8F81C0000F08050009070
:1008A0000127344D2868C00512D4286840F48070B0
:1008B0002860FFF73DFF064607E0FFF739FF801B82
:1008C000642802D90320BDE8F8832868C005F4D560
:1008D000D8F8200000F4407010B3A18801F44071F2
:1008E00081421DD0D8F8200020F440702249012216
:1008F0000A6000220A60C8F82000C00710D0FFF785
:1009000017FF054641F2883606E0FFF711FF401B4E
:10091000B04201D90320D6E7D8F820008007F4D5EB
:10092000D8F82000616820F440700843C8F820001F
:10093000012F05D1D8F81C0020F08050C8F81C0009
:100940002078800707D5D8F80400A16820F440403B
:100950000843C8F804002078C00607D5D8F804007A
:10096000616920F480000843C8F804000020AAE769
:100970000010024000700040400442422DE9F04760
:1009800004460D46002C17D0DFF83081D8F800005F
:1009900000F00700A84211D2D8F8000020F00700AC
:1009A0002843C8F80000D8F8000000F00700A8426B
:1009B00004D00120BDE8F0870120FBE72068404E0D
:1009C000810712D5400703D5706840F4E06070607D
:1009D0002078000703D5706840F46050706070683C
:1009E000A16820F0F000084370602078C0072CD088
:1009F0006068012806D0022809D0316889070BD425
:100A00000120D7E73168890306D40120D2E7316895
:100A1000890101D40120CDE7716821F00301014370
:100A20007160FFF785FE074641F2883906E0FFF75F
:100A30007FFEC01B484501D90320BBE77068616891
:100A400000F00C00B0EB810FF1D1D8F8000000F0FD
:100A50000700A8420ED9D8F8000020F0070028436C
:100A6000C8F80000D8F8000000F00700A84201D044
:100A700001209FE72078400705D57068E16820F4E1
:100A8000E060084370602078000706D5706821692F
:100A900020F4605040EAC100706000F03FF87168D7
:100AA000084AC1F30311515CC84007490860074870
:100AB0000068FFF75DFE00207CE700000020024098
:100AC00000100240DF26000818000020100000205F
:100AD00001480068704700001800002000B5FFF7CB
:100AE000F7FF04494968044AC1F30221515CC84038
:100AF00000BD000000100240EF26000800B5FFF71F
:100B0000E7FF04494968044AC1F3C221515CC84067
:100B100000BD000000100240EF26000885B014A0C0
:100B200090E80E00C068CDE902230191049014A062
:100B300000680090134B5968134801F00C02042A16
:100B400010D0082A0ED101A8C1F38342805CC903EA
:100B50000AD55968C1F340411DF801100A4A5043B3
:100B6000B0FBF1F005B0704708494843FAE70000D0
:100B700002030405060708090A0B0C0D0E0F1010DE
:100B8000010200000010024000127A0000093D003E
:100B90002DE9F84F0446002C0ED02078D94DC0071F
:100BA0005ED06868C0F3810001280BD06868C0F38C
:100BB0008100022803D00CE00120BDE8F88F6868AE
:100BC000C00306D5286880034AD56068A8BB012009
:100BD000F3E76068B0F5803F11D0A8B1B0F5A02F61
:100BE0001BD0286820F480302860286820F48020FA
:100BF0002860606830B3FFF79BFD06461EE028685A
:100C000040F480302860F4E7286820F480302860C1
:100C1000286820F480202860EBE7286840F48020D2
:100C20002860286840F480302860E2E7FFF780FD04
:100C3000801B642802D90320BFE711E028688003E5
:100C4000F4D50DE0FFF774FD064606E0FFF770FDF2
:100C5000801B642801D90320AFE728688003F5D4FE
:100C60002078DFF8A48280074FF0010A4FF00009D6
:100C700045D5686810F00C0F07D06868C0F3810094
:100C8000022812D16868C0030FD42868800704D5F1
:100C90002069012801D001208FE72868616920F0D0
:100CA000F80040EAC100286029E02069B8B1C8F81E
:100CB00000A0FFF73DFD064606E0FFF739FD801B6B
:100CC000022801D9032078E728688007F5D528682D
:100CD000616920F0F80040EAC10028600FE0C8F820
:100CE0000090FFF725FD064606E0FFF721FD801B7B
:100CF000022801D9032060E728688007F5D420780E
:100D0000000726D58148A16999B1C0F800A0FFF776
:100D10000FFD064606E0FFF70BFD801B022801D9F8
:100D200003204AE7686A8007F5D5012000F028FE15
:100D30000FE0C0F80090FFF7FBFC064606E0FFF767
:100D4000F7FC801B022801D9032036E7686A800778
:100D5000F5D42078400773D50026E869C00008D490
:100D6000E86940F08050E861E86900F08050009048
:100D70000126DFF89CB1DBF80000C00514D4DBF8D5
:100D8000000040F48070CBF80000FFF7D1FC07466C
:100D900006E0FFF7CDFCC01B642801D903200CE757
:100DA000DBF80000C005F4D5E068012812D0B0B12E
:100DB00005281DD0286A20F001002862286A20F04A
:100DC00004002862E06841F2883B28B3FFF7B0FCDA
:100DD00007461DE0286A40F001002862F2E7286A11
:100DE00020F001002862286A20F004002862E9E768
:100DF000286A40F004002862286A40F00100286256
:100E0000E0E7FFF795FCC01B584501D90320D4E665
:100E1000286A8007F5D50DE0FFF78AFC074606E053
:100E2000FFF786FCC01B584501D90320C5E6286A98
:100E30008007F5D4012E03D1E86920F08050E861E5
:100E4000E069A0B36968C1F38101022946D0022894
:100E500005D0C8F86090FFF76BFC04463AE0C8F88C
:100E60006090FFF765FC064606E0FFF761FC801B1B
:100E7000022801D90320A0E628688001F5D4206A61
:100E8000B0F5803F05D16868A16820F400300843C0
:100E90006860D4E908010843696821F474110843C3
:100EA0006860C8F860A0FFF743FC044607E026E04E
:100EB000FFF73EFC001B022801D903207DE62868CD
:100EC0008001F5D51BE0FFF733FC001B022801D998
:100ED000032072E628688001F5D410E001280CD0C8
:100EE0006868226A00F48031914204D1616A00F49A
:100EF0007010884203D001205FE601205DE60020EB
:100F00005BE60000001002400000424280044242C2
:100F10000070004010B5401EB0F1807F01D3012069
:100F200010BD4FF0E02460610F21601701F0B7F9A8
:100F30000020A06107202061002010BD704770478D
:100F400070B590F83C20012A2BD0012680F83C6037
:100F5000022280F83D2002685368956823F07004EF
:100F60000B6823435360104B02689A420ED00F4B1C
:100F70009A420BD0B2F1804F08D00D4B9A4205D067
:100F80000C4B9A4202D00C4B9A4204D125F08003BC
:100F90004968194391603C3046700021017000207F
:100FA00070BD022070BD0000002C014000340140E3
:100FB0000004004000080040000C004010B504464A
:100FC000002C03D094F83D0010B107E0012010BDC3
:100FD000002084F83C00204600F016F8022084F837
:100FE0003D00211D206800F037FD01203D34607276
:100FF0006070A070E07020716071A071E07120726B
:101000002070002010BD000008B500681049B0F144
:10101000804F14D00F4A904219D1C86940F0100097
:10102000C861C86900F01000009000221146362007
:10103000FFF7ECFBBDE808403620FFF7D9BBC869D5
:1010400040F00100C861C86900F00100009008BDCF
:10105000001002400010004090F83D10012901D01E
:1010600001207047022180F83D100168CA6842F0F3
:101070000102CA600068114988420ED010498842B6
:101080000BD0B0F1804F08D00E49884205D00E49F0
:10109000884202D00D49884209D1816801F00701D8
:1010A000062908D0016841F00101016003E00168F0
:1010B00041F001010160002070470000002C014058
:1010C000003401400004004000080040000C0040D3
:1010D00070B5044694F83C00012817D0012584F827
:1010E0003C50022084F83D002068826822F077029C
:1010F00022F47F4282600868502831D00DDC20281D
:101100004DD005DCB0B310284ED148E0022070BDB0
:10111000302844D0402847D137E060282BD07028B1
:1011200006D0B0F5805F3FD0B0F5005F3CD10BE05A
:10113000CB68D1E90121206800F0E3FC20688168D8
:1011400041F0770181602FE0CB68D1E9012120686F
:1011500000F0D7FC2068816841F48041816023E081
:10116000CA684968206800F0AFFD5021206800F08F
:10117000D2FC19E013E0CA684968206800F0B5FDA8
:101180006021206800F0C7FC0EE0CA68496820684A
:1011900000F09AFD4021206800F0BDFC04E02268C8
:1011A0000146104600F0B7FC3C346570002020700A
:1011B00070BD704770B50446206801694FF00005A6
:1011C000C943890716D4C168C943890712D4E91EE7
:1011D00001610120207720688069800703D02046C4
:1011E000FFF7E7FF05E0204600F0CCF8204600F0CE
:1011F00059F9257720680169C943490718D4C1689E
:10120000C943490714D46FF004010161022020771B
:101210002068806910F4407F03D02046FFF7C9FFA3
:1012200005E0204600F0AEF8204600F03BF92577B7
:1012300020680169C943090717D4C168C943090770
:1012400013D46FF008010161042020772068C06981
:10125000800703D02046FFF7ACFF05E0204600F0F2
:1012600091F8204600F01EF9257720680169C943EE
:10127000C90618D4C168C943C90614D46FF0100157
:101280000161082020772068C06910F4407F03D0F6
:101290002046FFF78EFF05E0204600F073F8204659
:1012A00000F000F9257720680169C943C90708D112
:1012B000C168C943C90704D1891E0161204600F0F5
:1012C00095F920680169C943090609D4C168C94371
:1012D000090605D46FF0800101612046FFF72EFE5C
:1012E00020680169C943490609D4C168C943490650
:1012F00005D46FF040010161204600F078F92068C4
:101300000169C94389060BD4C168C943890607D45A
:101310006FF0200101612046BDE87040FFF70FBE6D
:1013200070BD000000B585B00021019102910391CC
:1013300004910068B0F1804F1BD10F48816941F0E2
:1013400004018161806900F0040000904FF40040C6
:10135000019002200290049001A90848FFF7CEF8FE
:101360000749486820F4407040F0E06040F4807025
:10137000486005B000BD00000010024000080140B8
:1013800000000140704770B504460D4694F83C00DB
:1013900001280AD0012084F83C0042B1042A1AD066
:1013A000082A2DD00C2A53D13EE0022070BD2946D8
:1013B000206800F0B9FB2068816941F00801816173
:1013C0002068816921F004018161206881692A69AE
:1013D000114381613CE02946206800F0D9FB206878
:1013E000816941F4006181612068816921F4806133
:1013F0008161206881692A6941EA0221816127E0CF
:101400002946206800F0FEFB2068C16941F0080110
:10141000C1612068C16921F00401C1612068C1690E
:101420002A691143C16113E02946206800F022FCBB
:101430002068C16941F40061C1612068C16921F47B
:101440008061C1612068C1692A6941EA0221C161E4
:10145000002084F83C0070BD10B50446002C03D079
:1014600094F83D0010B107E0012010BD002084F881
:101470003C00204600F015F8022084F83D00211DB4
:10148000206800F0E9FA01203D3460726070A070BD
:10149000E07020716071A071E071207220700020F6
:1014A00010BD70477047000010B50446002909D0F0
:1014B00004290AD008290BD094F8410001280AD049
:1014C000012010BD94F83E00F8E794F83F00F5E7DE
:1014D00094F84000F2E7022079B3042931D00829BA
:1014E00032D084F841000122206800F0FDFA1B4A46
:1014F00020681B49904201D0884203D1436C43F4D9
:1015000000434364206890420DD088420BD0B0F174
:10151000804F08D01349884205D01349884202D031
:101520001249884213D1816801F00701062912D0BF
:10153000016841F0010101600DE0FFE784F83E0021
:10154000D1E784F83F00CEE784F84000CBE701689C
:1015500041F001010160002010BD0000002C01409D
:10156000003401400004004000080040000C00402E
:1015700030B504460D4600222946206800F0B4FA32
:10158000184A41F2111120688B10904202D0164A7D
:10159000904209D1026A0A4206D1026A1A4203D174
:1015A000426C22F4004242642068026A0A4206D178
:1015B000016A194203D1016821F001010160012093
:1015C0003DB1042D08D0082D09D084F84100002039
:1015D00030BD84F83E00FAE784F83F00F7E784F86E
:1015E0004000F4E7002C0140003401407047704790
:1015F00070B50446002C04D094F83900002510B1D1
:1016000006E0012070BD84F83850204600F022F832
:10161000242084F839002068C16821F40051C16099
:10162000204600F075FB2068016921F490410161BA
:101630002068416921F02A0141612068C16841F4B4
:101640000051C160E563202084F8390084F83A0035
:10165000002070BD30B585B000240194029403943D
:10166000049400681449884224D11448816941F4E3
:1016700080418161816901F480410091816941F07B
:1016800004018161806900F0040000904FF4007053
:1016900001900220029003200490094D01A92846E0
:1016A000FEF72CFF291501910294039401A9284605
:1016B000FEF724FF05B030BD0038014000100240A5
:1016C000000801402DE9F84304460E4615461F4622
:1016D00094F83900202802D00220BDE8F883C6B172
:1016E000BDB194F83800012815D0012084F83800E5
:1016F0004FF00009C4F83C90212084F83900FFF72E
:1017000017F88046A584E584A068B0F5805F04D012
:1017100005E00120E1E70220DFE7206920B135463E
:10172000002684F8389013E00025FAE743460022AB
:1017300080212046009700F047FB08B10320CCE74A
:101740009DB1216815F8010B4860E08C401EE084D3
:10175000E08C0028EAD14346002240212046009731
:1017600000F032FB40B10320B7E736F8020B2168E6
:10177000C0F308004860E8E7202084F83900002022
:10178000ABE7FEE707490968C9070AD00549803970
:101790000968C90705D04FF060410A68002AFCD0EB
:1017A00008707047800E00E03EB50024009401945C
:1017B00002940F480D4901608460047304754FF46E
:1017C0006021C161446001250561FEF7D9FD08B1C2
:1017D000FEF750FD00940195029469460448FEF717
:1017E0004BFD002801D0FEF745FD3EBD0024014021
:1017F0002400002070B586B0002402940394049461
:1018000005941648816941F010018161816901F0F8
:1018100010010191816941F004018161816901F048
:1018200004010191816941F480718161806900F452
:10183000807001900A4E4FF48045002229463046C0
:10184000FEF76EFF02950121039104940221059198
:1018500002A93046FEF752FE06B070BD00100240ED
:101860000020014030B58DB0002409940A940B94F7
:101870000C94079408941C216846FEF78EFC1E48C1
:101880004FF0804101600925456084606321C1609B
:1018900004618461FFF792FB08B1FEF7EBFC4FF4A3
:1018A0008050099009A91448FFF712FC08B1FEF70F
:1018B000E1FC1148FFF7D0FD08B1FEF7DBFC20206A
:1018C0000790089407A90C48FFF73AFB08B1FEF708
:1018D000D1FC602000900195029404940022694696
:1018E0000548FFF750FD08B1FEF7C4FC0248FFF7BA
:1018F00019FD0DB030BD0000540000201CB50024BF
:10190000009401940E480D49016063214160846098
:1019100040F65F11C1608461FFF750FB08B1FEF72C
:10192000A9FC20200090019469460548FFF708FBB8
:10193000002801D0FEF79EFC1CBD000000100040F6
:101940009C00002010B50B48094901604FF4165166
:10195000416000218160C16001610C2242618161AE
:10196000C161FFF745FE002801D0FEF783FC10BDE2
:1019700000380140E4000020FEE7FEE77047000069
:1019800008B507494FF4FA520968B1FBF2F1414337
:10199000009100BF0098411E0091FAD208BD0000DE
:1019A000180000207047FEF7C9BE30B595B0282159
:1019B0000BA8FEF7F2FB142106A8FEF7EEFB182198
:1019C0006846FEF7EAFB01200B9001040C9100240D
:1019D0000D940F90022512951391800414900BA87A
:1019E000FFF7D6F808B1FEF745FC0F2006900795E3
:1019F000089409940A94002106A8FEF7BFFF08B1D5
:101A0000FEF738FC009502946846FEF731FF002887
:101A100001D0FEF72FFC15B030BD704710B50B4C50
:101A20002068B0F57A7F01DB3B202060206800F061
:101A30006DFC20681E3020604FF480410448FEF7A2
:101A400067FEBDE810400348FFF7B4BB0800002064
:101A5000002001409C0000202DE9F04102681D4D4E
:101A60001D4E1E4FDFF878C01E4B4FF08048A84235
:101A700009D0984207D0404505D0B04203D0B842C3
:101A800001D0604503D122F070044A682243A84285
:101A900009D0984207D0404505D0B04203D0B842A3
:101AA00001D0604503D122F44074CA6822434C69D6
:101AB00022F08002224302608A68C2620A6882625F
:101AC000A84201D0984201D1096901630121416115
:101AD000BDE8F081002C01400004004000080040F7
:101AE000000C00400034014010B501F01F0101233B
:101AF0008B40046A9C430462036A8A401343036276
:101B000010BD10B5846824F47F4442EA03220A43DE
:101B10002243826010BD826822F070020A4342F0C4
:101B20000701816070470000F0B5026A22F00102EF
:101B30000262026A4368846924F0700424F0030599
:101B40000C682C4322F002058A682A430E4E0F4F80
:101B5000B04201D0B84205D122F00805CA682A4334
:101B600022F00402B04201D0B84207D123F48073BE
:101B700023F400734D691D438B692B4343608461DB
:101B8000496841630262F0BD002C0140003401400D
:101B9000F0B5026A22F010020262036A42688469A8
:101BA00024F4E04424F440740D6844EA052423F04E
:101BB00020038D6843EA0513104D114EA84201D051
:101BC000B04206D123F08003CF6843EA071323F025
:101BD0004003A84201D0B04209D122F4806222F42D
:101BE00000624D6942EA85028D6942EA85024260DF
:101BF0008461496881630362F0BD0000002C0140EC
:101C000000340140F0B5026A22F480720262026A76
:101C10004368C46924F0700424F003050C682C4365
:101C200022F400728D6842EA0522104D104EA8423F
:101C300001D0B04206D122F40062CF6842EA072206
:101C400022F48062A84201D0B04209D123F480532B
:101C500023F400534D6943EA05138D6943EA0513E4
:101C60004360C4614968C1630262F0BD002C014059
:101C70000034014030B5026A22F480520262046AE4
:101C80004268C36923F4E04323F440730D6843EAD8
:101C9000052324F400548D6844EA0534084DA84215
:101CA00002D0084DA84204D122F480424D6942EA94
:101CB00085124260C36149680164046230BD00005E
:101CC000002C01400034014010B5036A046A24F07E
:101CD00001040462846924F0F00444EA021423F04D
:101CE0000A020A438461026210BD10B5036A23F040
:101CF000100303628469036A24F4704444EA0232E4
:101D000023F0A00343EA01118261016210BD0000CB
:101D100070B5044620680169E26821F4405111431E
:101D20000161A16820690143606901432068C268BC
:101D300041F20C639A430A43C26020684169A26978
:101D400021F44071114341611E492068884202D14B
:101D5000FEF7D4FE01E0FEF7C1FE00EBC00101EB8F
:101D60000010616864228900B0FBF1F3B3FBF2F369
:101D70006FF018067343B0FBF1F5B0FBF1F605EB1D
:101D80008305322303EB0515B5FBF2F5B6FBF2F63E
:101D900005F0F00505EB0615B0FBF1F6B0FBF1F030
:101DA000B0FBF2F06FF01801484306EB800003EB44
:101DB0000010B0FBF2F0216800F00F0028448860AA
:101DC00070BD0000003801402DE9F04104460E4688
:101DD00017469846069D1DE0681C1BD02DB1FEF7E6
:101DE000A7FCA0EB0800A84214D92068C16821F420
:101DF000D071C1602068416921F00101416120205A
:101E000084F8390084F83A00002084F83800032070
:101E1000BDE8F0812068006836EA000004D00020A8
:101E2000B842D9D00020F3E70120F9E770B50546A4
:101E3000002D1CD00E4800F011F90E4CA06888B19E
:101E40000D4800F00BF9A06800F008F9E06830B127
:101E500009480A3000F002F9E06800F0FFF8044891
:101E600000F0FCF82846BDE8704000F0F7B870BDFF
:101E700023250008280100208E2600082DE9F047C0
:101E80000646DDF820900D469046154F07F12804D0
:101E9000386A002801D1786A18B101212046FEF77E
:101EA0009BF9AE421AD0184600F0E2F90D4800F056
:101EB000D5F84946304600F025F90A481C3800F0AC
:101EC000CDF84946284600F01DF94046FFF7AEFF21
:101ED0000120386201212046FEF77EF9BDE8F08737
:101EE00028010020562500080649086000204860A7
:101EF000086148618861C861086248628860C8609A
:101F0000704700002801002010B50F4C606A0028BF
:101F100003D0E069401CE06104E0206A58B1A06988
:101F2000401CA061002020626062BDE810400749AB
:101F30000A2000F06BBA2169206800F07BF90448A0
:101F400000F08CF8EEE70000280100201C000020C3
:101F50002625000810B51A490A2000F057FA19483A
:101F600000F07CF816490A2000F050FA164C60691F
:101F700000F0B6F8154800F071F8A06900F0B0F86C
:101F80001048183000F06AF8E06900F0A9F80D4830
:101F9000233000F063F80A490A2000F037FAA069FC
:101FA00048B10A48233800F059F805490A2000F0E2
:101FB0002DFAA06910BD05482E3800F04FF8F4E75F
:101FC0001C00002061260008280100204E25000882
:101FD00005461E4C04F12806206A002801D1606ADB
:101FE00018B101213046FEF7F7F8206800F022F919
:101FF000174800F033F815B316493A2000F006FAF6
:10200000A06890B1144800F029F8A06800F026F804
:10201000E06830B110480A3000F020F8E06800F0C5
:102020001DF80B48083800F019F82878202803D04C
:102030000849202000F0EAF9284600F00FF80120B6
:10204000206201213046FEF7C7F800002801002079
:102050002B2500081C0000208E26000810B5044621
:10206000002C04D110BD204600F006F8641C207836
:102070000028F8D110BD000010B504462078A0F16A
:1020800020015E2904D8BDE81040144900F0BEB913
:102090000D280FD00A2817D010495C2000F0B6F99F
:1020A0000E49782000F0B2F92078BDE810400221F6
:1020B00000F082B809495C2000F0A8F9BDE81040A2
:1020C0000649722000F0A2B904495C2000F09EF994
:1020D000BDE8104001496E2000F098B91C000020B6
:1020E00010B50446002805DA05492D2000F08EF9C8
:1020F000E443641C2046BDE8104000F07DB80000B9
:102100001C00002070B505460C46E0063BD5912C1E
:1021100004D02846BDE87040FFF7E2BF25492720DC
:1021200000F074F9A5F120005E2804D82149284662
:1021300000F06CF90FE00D2D13D00A2D1AD01D49B7
:102140005C2000F063F91B49782000F05FF9022160
:10215000284600F031F8BDE870401649272000F00D
:1021600055B914495C2000F051F91249722000F071
:102170004DF9F0E70F495C2000F048F90D496E2059
:1021800000F044F9E7E7A00604D52846BDE8704012
:1021900000F032B80749302000F038F905497820BE
:1021A00000F034F92007C10E2846BDE8704000F069
:1021B00003B800001C00002070B505460C46082C32
:1021C00015D9082413E0641EE4B2A00025FA00F03B
:1021D00000F00F00092805DC3030C0B2054900F0DE
:1021E00015F904E03730C0B2024900F00FF9002CB5
:1021F000E9D170BD1C00002070B50646012402E044
:1022000004EB84004400B6FBF4F00928F8D80A2552
:10221000B6FBF4F1B1FBF5F005FB101030300449CA
:1022200000F0F4F8B4FBF5F4002CF1D170BD00001F
:102230001C00002010B50C46FFF710FF0A493A2099
:1022400000F0E4F82046FFF74BFF07493A2000F082
:10225000DDF806484068FFF701FFBDE8104002497D
:102260003A2000F0D3B800001C0000202801002014
:1022700010B5014606480068FFF7DCFF0548FFF788
:10228000EDFEBDE8104004493A2000F0BFB8000060
:10229000280100202B2500081C000020FEE709076C
:1022A000090E002804DB00F1E02080F800147047DC
:1022B00000F00F0000F1E02080F8141D704702E0EC
:1022C00008C8121F08C1002AFAD1704770470020C1
:1022D00001E001C1121F002AFBD1704710B5044A6A
:1022E0001060516000F00CF8BDE8104000F002B83A
:1022F00000000020014803C8FFF73AB900000020A1
:10230000014803C8FFF7D0B800000020024909685F
:10231000096888627047000000000020064A914268
:1023200001D100F0AEB8054A914201D100F0A7B842
:102330004FF0FF30704700001C00002020000020FC
:1023400010B50348FEF788FEBDE81040FFF7D8BF80
:102350009C000020FEF7FAF9FFF727FBFFF74AFA87
:10236000FFF722FAFFF7EEFAFFF77CFAFFF7C6FA5B
:1023700000F002F8FEE7000010B50DA0FFF7B4FD75
:1023800010220EA1114800F043F8142210A11448A5
:1023900000F03EF8192213A1164800F039F82F2258
:1023A00015A1194800F034F8BDE81040FFF7D2BD80
:1023B0006D61696E546573742E6300007465737487
:1023C00047415353656E736F720000001D2500086E
:1023D0007465737454656D7053656E736F7200002D
:1023E0001F25000874657374414C41524D53656E4E
:1023F000736F720089240008746573744465627594
:1024000067506F7274000000BD240008FFF786BF9C
:1024100070B50446104B59601A615869401C5861E8
:1024200000219960D960FDF722FF0B48283005464E
:10243000FDF7C5FE10B900F021F8A0472846FDF7CA
:10244000BEFE18B900F01FF8FDF712FFFDF70EFFF2
:10245000FFF75AFD70BD00002801002010B50446AA
:102460002046FDF7A5FE214682B2BDE810404FF69A
:10247000FF730148FFF726B9E40000207047FFF71B
:1024800081B9FFF77FB9704738B500210A48FFF7D7
:1024900025FF0146142400221F2310460094FFF755
:1024A000EDFCFFF74DFF014600222B231046009460
:1024B000FFF7E4FC38BD00005400002000B587B0F1
:1024C0001C2207A16846FDF74FFE6846FFF7C6FFCE
:1024D000002803D0332109A0FFF77AFD07B000BD23
:1024E0005B5444445D20446562756720506F72748C
:1024F00020546573742E2E2E0D0A0000204578702E
:1025000072657373696F6E204576616C7561746571
:102510006420546F2046414C53450000704770477B
:102520004F4B002E200050415353004641494C0070
:102530004E554C4C004E6F742000205761732000A4
:1025400049474E4F5245002042797465200020547F
:10255000657374732000204578706563746564202A
:102560000020746F20626520677265617465722057
:102570007468616E200020746F206265206C657342
:1025800073207468616E20006F7220657175616CD4
:1025900020746F200020746F206265206E6F74209D
:1025A000657175616C20746F200020456C656D65E8
:1025B0006E742000204D656D6F7279204D69736DCA
:1025C000617463682E002056616C756573204E6FD0
:1025D000742057697468696E2044656C74612000CA
:1025E00020596F752041736B6564204D6520546FD1
:1025F00020436F6D70617265204E6F7468696E67FD
:102600002C2057686963682057617320506F696E8A
:10261000746C6573732E002045787065637465640F
:1026200020706F696E74657220746F206265204E31
:10263000554C4C002041637475616C20706F696E5D
:1026400074657220776173204E554C4C00496E764C
:10265000616C696420466C6F6174205472616974A6
:10266000002D2D2D2D2D2D2D2D2D2D2D2D2D2D2DC7
:102670002D2D2D2D2D2D2D2D00204661696C75726F
:10268000657320002049676E6F726564200046758F
:102690006E6374696F6E200020417267756D656EA0
:1026A00074200000B4260008BD260008CF260008CC
:1026B000D3260008496E66696E697479004E6567B5
:1026C000617469766520496E66696E697479004E39
:1026D000614E0044657465726D696E6174650000D9
:1026E00000000000000000010203040607080900C2
:1026F0000000000102030400182700080000002069
:1027000024000000BE2200083C270008240000200E
:10271000CC050000CE2200080000000000000000F0
:102720003B0000000100000010000000000000005D
:0C2730000024F400000000000000000085
:0400000508000131BD
:00000001FF
