:020000040800F2
:1000000098050020450100087B1400083F130008F4
:10001000791400086D020008391B00080000000078
:100020000000000000000000000000007F14000835
:100030006F020008000000007D1400088114000811
:100040005F0100085F0100085F0100085F01000810
:100050005F0100085F0100085F0100085F01000800
:100060005F0100085F0100085F0100085F010008F0
:100070005F0100085F0100085F0100085F010008E0
:100080005F0100085F0100085F0100085F010008D0
:100090005F0100085F0100085F0100085F010008C0
:1000A0005F0100085F0100085F0100085F010008B0
:1000B0005F0100085F0100085F0100085F010008A0
:1000C0005F0100085F0100085F0100085F01000890
:1000D0005F0100085F0100085F0100085F01000880
:1000E0005F0100085F0100085F0100085F01000870
:1000F0005F0100085F0100085F0100085F01000860
:100100005F0100085F0100085F0100085F0100084F
:100110005F0100085F0100085F0100085F0100083F
:100120005F0100085F0100085F0100085F0100082F
:10013000DFF80CD000F062F800480047991B000877
:10014000980500200648804706480047FEE7FEE77E
:10015000FEE7FEE7FEE7FEE7FEE7FEE7FEE7FEE777
:10016000F51400083101000840EA01039B0703D0A1
:1001700009E008C9121F08C0042AFAD203E011F8E6
:10018000013B00F8013B521EF9D27047D2B201E0A8
:1001900000F8012B491EFBD270470022F6E710B58C
:1001A00013460A4604461946FFF7F0FF204610BDE5
:1001B000421C10F8011B0029FBD1801A7047A0E8EF
:1001C000004FF0C040F804DB01B5AFF30080BDE89C
:1001D000024001C10020704700F12C080C4658F87D
:1001E000040DAFF3008058F8040D8546200008BFC9
:1001F000012038E9F00018E9004F7047064C074D20
:1002000006E0E06840F0010394E8070098471034E6
:10021000AC42F6D3FFF790FF441F0008641F0008AC
:1002200070B5044600688168C943C9071CD181685C
:1002300021F00101816000F051FA05460FE000BF96
:1002400000F04CFA401B022809D9A06A40F01000C7
:10025000A062E06A40F00100E062012070BD206809
:100260008068C043C007EBD0002070BDFEE7704738
:10027000F8B50024009490F824202546012A12D0D5
:10028000012280F824204A681F23072A0DD206681D
:10029000776B521E02EB820293409F430B689340A0
:1002A0001F43776319E00220F8BD06680D2A0AD2C1
:1002B000376BD21F02EB820293409F430B6893403F
:1002C0001F43376309E0F76A0D3A02EB820293405D
:1002D0009F430B6893401F43F7620A680723066831
:1002E0000A2A0AD3F7680A3A02EB420293409F4374
:1002F0008B6893401F43F76008E0376902EB4202C6
:1003000093409F438B6893401F4337610A68102ACC
:1003100001D0112A20D1124B02689A4217D193685A
:100320001B0219D4936843F40003936009681029F1
:1003300012D10C490C4A0968B1FBF2F101EB8101C1
:10034000490000E0491E00910029FBD104E0816AC8
:1003500041F020018162012480F824502046F8BD3C
:10036000002401400C00002040420F002DE9F04124
:1003700004004FF000057FD0A06A002628B9E6628D
:1003800084F82460204600F081F82046FFF748FFFB
:10039000A16AC90600D420B1A06A40F01000A06292
:1003A0006AE0A16A21F4885141F00201A162334957
:1003B00023688B42E16904D1B1F5402F01D14FF49C
:1003C0000021277B4FF4807C41EA470261680A43A1
:1003D000A168614508D0012906D0002194F814E0F5
:1003E000BEF1010F02D00AE06146F7E7C7B1A76A84
:1003F00047F02007A762E76A47F00107E7625F68F6
:1004000027F469470F435F60236899681C4F3940A0
:1004100011439960A16861450BD0012909D00CE016
:10042000DFF860E0A7690EEB47370F4347F4006140
:10043000E5E7218A0D05A5F580152168CB6A23F42F
:1004400070032B43CB62216889680F4B194091429E
:1004500008D1E662A16A21F0020141F00101A16226
:10046000BDE8F081A06A20F0020040F01000A06218
:10047000E06A40F00100E0620120F1E7003C014049
:10048000FDF7E1FF00E0FFFFFE0E1FFF00B585B0A6
:100490000021009101910291039100680E49884268
:1004A00017D10E48816941F400718161816901F4BD
:1004B00000710491816941F004018161806969469C
:1004C00000F004000490032000900190044800F024
:1004D00009F805B000BD00000024014000100240F2
:1004E000000801402DE9F84FDFF8C891002409F118
:1004F000040A0AF1040B23460F270BF1040ED1E086
:100500000125A54006EA0502AA4276D1DFF8A8C176
:100510004E68A6EB0C0866452BD00DDC032E34D0BC
:1005200005DC36B3012E19D0022E2FD11BE0112E7F
:1005300016D0122E2AD119E0B8F5881F19D006DC82
:10054000B8F5803F15D0B8F5801F1FD111E0B8F580
:10055000001F0ED0B8F5041F18D10AE0CB6815E0D3
:10056000CB681B1D12E0CB6808330FE0CB680C335F
:100570000CE08B682BB1012B4FF0080303D04561D1
:1005800004E0042302E0056100E00023FF2A01D813
:10059000064601E000F104064FEA840501D9A5F101
:1005A0002005D6F8008007FA05FC28EA0C0803FAB3
:1005B00005F548EA0508C6F800804D68ED0070D5DD
:1005C0003E4DAE6946F00106AE61AD6924F003060A
:1005D00005F0010500953A4D06EB050CDCF80850D6
:1005E000A607360F07FA06F825EA0805DFF8D480D3
:1005F000404503D14FF0000825E052E0DFF8C88005
:10060000404502D14FF001081DE0DFF8C0804045B1
:1006100002D14FF0020816E0DFF8B480404502D165
:100620004FF003080FE0DFF8AC80404502D14FF0F7
:10063000040808E0DFF8A080404502D14FF005082B
:1006400001E04FF0060808FA06F848EA0508CCF879
:1006500008804D68D9F80060ED034D4601D516437A
:1006600000E096432E604D68DAF80060AD03554611
:1006700001D5164300E096432E604D68DBF800601C
:10068000ED025D4601D5164300E096432E604D68AD
:10069000DEF80060AD02754601D5164300E09643D2
:1006A0002E60641C0A681646E2407FF429AFBDE85C
:1006B000F88F0000000401400000111000100240FB
:1006C0000000014000080140000C01400010014002
:1006D0000014014000180140001C014001488068DE
:1006E0007047000000000020024881680278114431
:1006F0008160704700000020074810B5016841F094
:1007000010010160032000F067F8002000F006F8F7
:1007100000F024F8002010BD0020024070B50D4DFF
:1007200004464FF47A712878B1FBF0F00A49096861
:10073000B1FBF0F000F054FB48B9102C07D20022B6
:100740002146501E00F028F800206C6070BD01208A
:1007500070BD0000000000200C0000200C4808B50F
:10076000816941F001018161816901F0010100911C
:10077000C16941F08051C161C06900F080500090B2
:100780000448416821F0E06141F00071416008BD1A
:100790000010024000000140F0B40E4B1B680C46F4
:1007A000C3F30223C3F10705042D00D90425191D45
:1007B000072901D2002300E0DB1E012606FA05F11D
:1007C000491E214099409E40761E16403143F0BCA0
:1007D00001F0B3B90CED00E0064900F0070208682B
:1007E0004FF6FF03184040EA0220034A1043086016
:1007F000704700000CED00E00000FA052DE9F84319
:1008000005460078354CC00754D0E0690026C0008A
:1008100008D4E06940F08050E061E069012600F012
:10082000805000902E480168C90512D401688046A6
:1008300041F480710160FFF751FF074605E000BFFA
:10084000FFF74CFFC01B642823D8D8F80000C00570
:10085000F6D5206A10F4407021D0A98801F44071C7
:1008600081421CD0206A1F49012220F440700A6096
:1008700000220A602062C00711D0FFF72FFF074651
:1008800041F2883808E000BFFFF728FFC11B41454F
:1008900002D90320BDE8F883206A8007F4D5206AD6
:1008A000696820F44070084320621EB1E06920F0BE
:1008B0008050E0612878800705D56068A96820F439
:1008C0004040084360602878C00605D560686969C3
:1008D00020F48000084360600020DBE70010024045
:1008E00000700040400442422DE9F0470F460500E9
:1008F00061D0434E306800F00700B84209D230683A
:1009000020F0070038433060306800F00700B8423C
:1009100051D128683B4C810712D5400703D5606848
:1009200040F4E06060602878000703D5606840F418
:10093000605060606068A96820F0F0000843606063
:100940002878C00728D06868012810D021680228BC
:1009500010D0890700292EDA616821F003010143D4
:100960006160FFF7BBFE804641F288390DE02168E7
:100970008903EFE78901EDE7FFF7B0FEA0EB08017F
:10098000494502D90320BDE8F0876068696800F036
:100990000C00B0EB810FEFD1306800F00700B842D7
:1009A0000BD9306820F0070038433060306800F021
:1009B0000700B84201D00120E5E72878400705D5B7
:1009C0006068E96820F4E060084360602878000708
:1009D00006D56068296920F4605040EAC100606073
:1009E00000F038F86168084AC1F30311515CC8404F
:1009F0000649086006480068FFF790FE0020C2E73D
:100A000000200240001002402B1F00080C000020B4
:100A1000040000200448054900684968044AC1F3FD
:100A20000221515CC84070470C00002000100240B9
:100A30003B1F00080448054900684968044AC1F39F
:100A4000C221515CC84070470C00002000100240D9
:100A50003B1F000812A185B00FC98DE80F0014A03C
:100A6000144A006804905168134801F00C03042BE9
:100A700010D0082B0ED1C1F38343C9031DF8030026
:100A80000AD5516804AAC1F34041515C0A4A504357
:100A9000B0FBF1F005B0704708494843FAE70000A1
:100AA00002030405060708090A0B0C0D0E0F1010AF
:100AB000010200000010024000127A0000093D000F
:100AC0002DE9F84F040070D02078C04DC00749D000
:100AD0006868C0F38100012807D06868C0F381000E
:100AE000022809D16868C00306D52868800339D573
:100AF00060680028E7D035E06068B0F5803F0BD033
:100B000010B1B0F5A02F11D0286820F480302860F3
:100B1000286820F4802002E0286840F480302860B3
:100B2000606890B1FFF7DAFD06460AE0286840F4F5
:100B300080202860F0E700BFFFF7D0FD801B64280D
:100B400073D828688003F7D50CE0FFF7C7FD064689
:100B500005E000BFFFF7C2FD801B6428F0D82868BD
:100B60008003F7D420789A4E80074FF001094FF0A8
:100B7000000839D5686810F00C0F07D06868C0F31A
:100B80008100022809D16868C00306D4286880075C
:100B900014D52069012808D110E02069B0B1C6F849
:100BA0000090FFF79BFD074605E00AE1FFF796FD81
:100BB000C01B0228C4D828688007F7D52868616957
:100BC00020F0F80040EAC10028600DE0C6F800807F
:100BD000FFF784FD074604E0FFF780FDC01B0228F5
:100BE00023D828688007F7D4207800072CD57948C7
:100BF000A169D9B1C0F80090FFF770FD074604E085
:100C0000FFF76CFDC01B02280FD8686A8007F7D574
:100C100071484FF4FA510068B0FBF1F0009000BF4A
:100C20000098411E0091FAD20EE080E0C0F80080EA
:100C3000FFF754FD074604E0FFF750FDC01B0228F4
:100C400075D8686A8007F7D42078400760D5E869CE
:100C50000027C00008D4E86940F08050E861E869E6
:100C6000012700F0805000905C480168C90513D44A
:100C70000168834641F480710160FFF72FFD8246D1
:100C800006E000BFFFF72AFDA0EB0A0064284ED85B
:100C9000DBF80000C005F5D5E06801280AD008B1EE
:100CA000052813D0286A20F001002862286A20F065
:100CB000040002E0286A40F001002862E06841F286
:100CC000883B98B1FFF70AFD82460BE0286A40F0A6
:100CD00004002862EEE700BFFFF700FDA0EB0A0169
:100CE00059455AD8286A8007F6D50CE0FFF7F6FC7C
:100CF000824605E0FFF7F2FCA0EB0A0159454CD80B
:100D0000286A8007F6D41FB1E86920F08050E861B6
:100D1000E06988B36968C1F38101022944D00228DF
:100D2000C6F8608004D0FFF7D9FC044638E034E010
:100D3000FFF7D4FC074604E0FFF7D0FCC01B0228F5
:100D40002BD828688001F7D4206AB0F5803F05D100
:100D50006868A16820F4003008436860D4E908019D
:100D60000843696821F4741108436860C6F860900C
:100D7000FFF7B4FC044606E025E000BFFFF7AEFC39
:100D8000001B022809D828688001F7D51BE000BFA6
:100D9000FFF7A4FC001B022802D90320BDE8F88F4E
:100DA00028688001F4D40EE00128F7D06868226A30
:100DB00000F48031914204D1616A00F470108842DD
:100DC00001D00120EAE70020E8E70000001002401F
:100DD00000004242800442420C00002000700040AB
:100DE00010B5401EB0F1807F01D3012010BD4FF03F
:100DF000E02460610F21601700F09FFE0020A061D9
:100E000007202061002010BD10B590F83C20012A79
:100E100022D0012280F83C20CA688C6822F44072FB
:100E200022434C6822F4806222430C6822F4006260
:100E300022430C6922F4805222434C6922F400526E
:100E40002243C969002322F480420A4301684A64AC
:100E500080F83C30002010BD022010BD70B590F825
:100E60003C20012A2CD0012480F83C40022280F84A
:100E70003D2003685A689D6822F070060A68324374
:100E80005A60104B02689A420ED00F4B9A420BD018
:100E9000B2F1804F08D00D4B9A4205D00C4B9A42CC
:100EA00002D00C4B9A4204D1496825F080031943C3
:100EB000916080F83D40002180F83C10084670BDEC
:100EC000022070BD002C01400034014000040040AD
:100ED00000080040000C004010B5040003D094F856
:100EE0003D0010B107E0012010BD002084F83C0057
:100EF000204600F01FF8022084F83D00211D2068E4
:100F000000F0FAFA012084F8460084F83E0084F8E4
:100F10003F0084F8400084F8410084F8420084F8DF
:100F2000430084F8440084F8450084F83D00002024
:100F300010BD000008B500680649884208D106487F
:100F4000816941F400618161806900F40060009072
:100F500008BD0000002C01400010024070B504469E
:100F600090F83C00012817D0012584F83C5002205D
:100F700084F83D002068826822F0770222F47F42E4
:100F800082600868502830D00DDC20284DD005DC68
:100F900098B310283BD148E0022070BD302844D0DF
:100FA000402834D139E0602828D0702806D0B0F528
:100FB000805F2CD0B0F5005F29D10AE0CB68D1E981
:100FC0000121206800F0DEFA2068816841F0770195
:100FD00009E0CB68D1E90121206800F0D3FA20684C
:100FE000816841F48041816011E0CA6849682068E5
:100FF00000F09CFB5021206807E016E0CA684968B1
:10100000206800F0A4FB6021206800F0C5FA84F895
:101010003D50002084F83C0070BDCA6849682068D3
:1010200000F084FB40212068EFE72268014610466B
:10103000EBE7000000B585B000210091019102911D
:1010400003910068104988421BD11048816941F022
:10105000400181618069694600F0400004904FF4CE
:10106000007000900220019003900948FFF73AFABF
:101070000848416821F0C00141F0E06141F0C00141
:10108000416005B000BD0000002C0140001002408E
:10109000001801400000014070B5044690F83C0083
:1010A0000D4601280AD0012084F83C0042B1042AF0
:1010B00018D0082A2AD00C2A4DD139E0022070BD60
:1010C000206800F071FA2068816941F008018161AF
:1010D0002068816921F004018161206881692A69A1
:1010E000114311E0206800F08FFA2068816941F413
:1010F000006181612068816921F4806181612068DB
:1011000081692A6941EA0221816124E0206800F0B6
:10111000B1FA2068C16941F00801C1612068C16964
:1011200021F00401C1612068C1692A69114311E0FD
:10113000206800F0D3FA2068C16941F40061C16100
:101140002068C16921F48061C1612068C1692A6990
:1011500041EA0221C161002084F83C0070BD10B555
:10116000040003D094F83D0010B107E0012010BD49
:10117000002084F83C00204600F01EF8022084F88D
:101180003D00211D206800F0B7F9012084F84600D9
:1011900084F83E0084F83F0084F8400084F8410061
:1011A00084F8420084F8430084F8440084F8450041
:1011B00084F83D00002010BD704770B5040004D0D5
:1011C00094F83900002510B106E0012070BD84F8C4
:1011D0003850204600F022F8242084F83900206896
:1011E000C16821F40051C160204600F0C3FA2068B4
:1011F000016921F4904101612068416921F02A01CF
:1012000041612068C16841F40051C160E56320205C
:1012100084F8390084F83A00002070BD30B585B0FC
:1012200000240094019402940394006814498842B5
:1012300024D11448816941F480418161816901F4BC
:1012400080410491816941F00401816180690E4D02
:1012500000F0040004904FF4007000900220019010
:101260000320039069462846FFF73CF92815CDE98D
:101270000004694628460294FFF734F905B030BDF2
:101280000038014000100240000801402DE9F843F9
:10129000044690F839001F4616460D4620284CD1CA
:1012A000C5B1BEB194F83800012846D0012084F8B9
:1012B00038004FF00008C4F83C80212084F8390041
:1012C000FFF70CFAA6848146E684A068B0F5805F3B
:1012D00003D004E00120BDE8F883206928B12E4640
:1012E0005FF0000584F838800EE00026FAE78021E0
:1012F000204600F09BFAA0B9AEB116F8010B2168A8
:101300004860E08C401EE084E08C4B464FF00002C9
:1013100000970028EBD14FF04001204600F086FAFC
:1013200030B10320D7E735F8020BC0F30800E6E739
:10133000202084F839000020CDE70220CBE7FEE72B
:1013400007490968C9070AD0054980390968C907EA
:1013500005D04FF060410A68002AFCD00870704741
:10136000800E00E03EB500241048009401940294E1
:101370000D498460016004730475012505614FF413
:1013800060214460C161FEF7F1FF08B172B6FEE76B
:10139000CDE90045694605480294FEF769FF00283B
:1013A00001D072B6FEE73EBD0024014018000020C7
:1013B00010B596B000240F941094119412941394C5
:1013C0001C2108A81494FEF7E8FE20216846FEF7C9
:1013D000E4FE28482649C0E900144FF6FF71C0E931
:1013E0000241046144618461FFF776FD08B172B681
:1013F000FEE74FF480500F900FA91E48FFF7AEFD97
:1014000008B172B6FEE71B48FFF7A9FE08B172B635
:10141000FEE7139413A917481494FFF71FFD08B1B2
:1014200072B6FEE76020CDE908040A940B940C9490
:101430000D94002208A90F480E94FFF72DFE08B165
:1014400072B6FEE700944FF40050CDE904400294D8
:1014500001940394694607480794FFF7D5FC08B147
:1014600072B6FEE70348FFF7E5FD16B010BD0000B9
:10147000002C014048000020FEE7FEE7704770475F
:10148000FFF732B930B595B028216846FEF785FEE2
:1014900014210AA8FEF781FE18210FA8FEF77DFE91
:1014A00001210804CDE900100025029502240491D1
:1014B000CDE90740800009906846FFF701FB08B1BD
:1014C00072B6FEE70AA90F2081E831000D950021D0
:1014D0000AA80E95FFF708FA08B172B6FEE70FA842
:1014E00011950F94FFF78AF9002801D072B6FEE734
:1014F00015B030BD70470000F0B502681C4B1D4DA3
:101500001D4E1E4F1E4C4FF0804C984209D0A042F9
:1015100007D0604505D0A84203D0B04201D0B84200
:1015200004D122F0700E4A6842EA0E02984209D0B5
:10153000A04207D0604505D0A84203D0B04201D0F8
:10154000B84203D122F44075CA682A434D6922F09B
:1015500080022A4302608A68C2620A6882629842F4
:1015600001D0A04201D10969016301214161F0BDAF
:10157000002C01400004004000080040000C004026
:101580000034014010B5846842EA032224F47F4409
:101590000A432243826010BD826822F070020A432F
:1015A00042F0070181607047F0B5026A22F0010243
:1015B0000262036A42688469124E24F073050C6863
:1015C0002C4323F002058B682B430D4DA84201D01C
:1015D000B04205D123F00807CB683B4323F0040356
:1015E000A84201D0B04205D14D6922F440721543A2
:1015F0008A692A4342608461496841630362F0BD9D
:10160000002C014000340140F0B5026A22F01002C3
:101610000262026A436884690D6824F4E64444EA7D
:1016200005248D6822F0200242EA05120F4D104E6B
:10163000A84201D0B04206D1CF6822F0800242EA2F
:10164000071222F04002A84201D0B04207D14D69F2
:1016500023F4406343EA85038D6943EA85034360CD
:101660008461496881630262F0BD0000002C014082
:1016700000340140F0B5026A22F480720262026A0C
:101680004368C46922F4007224F073050C68124E9A
:101690002C438D6842EA05220E4DA84201D0B0428B
:1016A00006D1CF6822F4006242EA072222F4806267
:1016B000A84201D0B04207D14D6923F4405343EA18
:1016C00005138D6943EA05134360C4614968C1632A
:1016D0000262F0BD002C01400034014030B5026AC6
:1016E00022F480520262046A4268C3690D6823F4DE
:1016F000E64343EA05238D6824F4005444EA0534A4
:10170000084DA84202D0084DA84204D14D6922F4E8
:10171000804242EA85124260C36149680164046202
:1017200030BD0000002C01400034014010B5036AB8
:10173000046A24F001040462846924F0F00444EA99
:10174000021423F00A020A438461026210BD10B53C
:10175000036A23F0100303628369046A23F470436D
:1017600043EA023224F0A00343EA011182610162DC
:1017700010BD000070B5044600680169E26821F4FC
:101780004051114301612169A06808436169084320
:101790002168CA6841F20C639A430243CA60206818
:1017A0004169A26921F44071114341611E492068D9
:1017B000884202D1FFF73EF901E0FFF72BF900EB79
:1017C000C00101EB0012606864218000B2FBF0F3FD
:1017D000B3FBF1F36FF018067343B2FBF0F5B2FB05
:1017E000F0F605EB8305322303EB0515B5FBF1F5A8
:1017F000B6FBF1F605F0F00505EB0615B2FBF0F6C9
:10180000B2FBF0F0B0FBF1F06FF01802504306EBC2
:10181000800003EB0010B0FBF1F0216800F00F0036
:101820002844886070BD0000003801402DE9F04177
:10183000984617460E460446069D1DE0681C1BD0C0
:101840002DB1FEF74BFFA0EB0800A84214D9206889
:10185000C16821F4D071C1602068416921F00101A3
:101860004161202084F8390084F83A00002084F88F
:1018700038000320BDE8F0812068006836EA0000E7
:1018800004D00020B842D9D00020F3E70120F9E7C6
:101890000649086000204860086148618861C861A5
:1018A000086248628860C86070470000D00000206D
:1018B00010B50E4C606A18B1E069401CE06104E0AC
:1018C000206A58B1A069401CA061002020626062BB
:1018D000BDE8104006490A2000F0E6B921692068F9
:1018E00000F00CF9034800F087F8EEE7D000002084
:1018F00010000020721D000810B51A490A2000F0DF
:10190000D3F9194800F078F816490A2000F0CCF90C
:10191000164C606900F0AAF8154800F06DF8A0694F
:1019200000F0A4F81048183000F066F8E06900F004
:101930009DF80D48233000F05FF80A490A2000F0B6
:10194000B3F9A06950B10A48B0F1230000F054F88F
:1019500004490A2000F0A8F9A06910BD04482E38F7
:10196000F4E7000010000020AD1E0008D0000020A9
:101970009A1D00081C4C064604F12805206A08B987
:10198000606A18B101212846FEF726FC206800F0A5
:10199000B5F8164800F030F816B315493A2000F0B3
:1019A00083F9A06890B1134800F026F8A06800F011
:1019B00023F8E06830B10F480A3000F01DF8E06805
:1019C00000F01AF80948083800F016F83078202896
:1019D00003D00749202000F067F9304600F00CF8EA
:1019E00001202062CEE70000D0000020771D000813
:1019F00010000020DA1E000810B5040004D110BD4C
:101A0000204600F005F8641C20780028F8D110BDAD
:101A100010B504460078A0F120015E2901D81249D2
:101A20001DE00D2810D00A280F494FF05C0012D09D
:101A300000F03AF90C49782000F036F92078BDE83A
:101A40001040022100F022B807495C2000F02CF978
:101A50000549722003E000F027F903496E20BDE834
:101A6000104000F021B900001000002010B5040063
:101A700005D505492D2000F017F9E443641C2046E4
:101A8000BDE8104000F01CB81000002070B50546FD
:101A90000C4608290FD90824641EE4B2A00025FAD8
:101AA00000F000F00F000549092801DC303000E0AB
:101AB000373000F0F9F8002CEED170BD1000002096
:101AC00070B50546012402E004EB84004400B5FB38
:101AD000F4F00928F8D80A26B5FBF4F0B0FBF6F1CB
:101AE00006FB11000449303000F0DEF8B4FBF6F4D8
:101AF000002CF1D170BD00001000002010B50C4684
:101B0000FFF77AFF0A493A2000F0CEF82046FFF7A7
:101B1000ADFF07493A2000F0C7F806484068FFF7D4
:101B20006BFFBDE8104002493A2000F0BDB800004C
:101B300010000020D0000020FEE70907090E002851
:101B400004DB00F1E02080F80014704700F00F0083
:101B500000F1E02080F8141D704702E008C8121F51
:101B600008C1002AFAD170477047002001E001C186
:101B7000121F002AFBD17047054A914202D0054A44
:101B8000914201D1FFF7DCBB4FF0FF3070470000FE
:101B9000100000201400002008B5FEF7ADFDFFF78F
:101BA00071FC1948816941F010018161816901F07E
:101BB00010010091816941F004018161816901F0A6
:101BC00004010091816941F040018161806900F068
:101BD00040000090FFF7C6FBFFF7EAFB0C480B49FB
:101BE0000C2201604FF41651416000218160C160F8
:101BF000C0E904128161C161FFF7DFFA08B172B672
:101C0000FEE700F007F8FEE7001002400038014050
:101C10009000002010B50DA0FFF73AFE0E220EA195
:101C2000114800F043F8122210A1144800F03EF8C9
:101C3000172213A1164800F039F81C2215A11948E3
:101C400000F034F8BDE81040FFF756BE6D61696ED4
:101C5000546573742E630000746573744741535365
:101C6000656E736F72000000691D000874657374FF
:101C700054656D7053656E736F7200006B1D0008C4
:101C800074657374414C41524D53656E736F7200AD
:101C9000F11C0008746573744465627567506F7257
:101CA00074000000F51C0008FFF766BF70B50E4B0E
:101CB00004461A6159605869401C586100209860B8
:101CC000D86003F128000546FEF779FA10B900F054
:101CD0000DF8A0472846FEF772FA08B900F007F899
:101CE000FFF7E6FD70BD0000D00000207047704790
:101CF0007047000000B587B01C220BA16846FEF7B4
:101D000033FA6846FEF754FA82B24FF6FF7369461B
:101D10000C48FFF7BBFA012803D021210AA0FFF7E6
:101D200029FE07B000BD00005B5444445D204465BB
:101D300062756720506F727420546573742E2E2E56
:101D40000D0A0000900000202045787072657373C2
:101D5000696F6E204576616C756174656420546F9F
:101D60002046414C53450000704770474F4B002EB2
:101D7000200050415353004641494C004E554C4CB5
:101D8000004E6F74200020576173200049474E4F6A
:101D900052450020427974652000205465737473A5
:101DA0002000204578706563746564200020746F9E
:101DB0002062652067726561746572207468616E67
:101DC000200020746F206265206C65737320746836
:101DD000616E20006F7220657175616C20746F20D8
:101DE0000020746F206265206E6F742065717561CC
:101DF0006C20746F200020456C656D656E7420004A
:101E0000204D656D6F7279204D69736D61746368E3
:101E10002E002056616C756573204E6F74205769D3
:101E20007468696E2044656C7461200020596F7578
:101E30002041736B6564204D6520546F20436F6DA6
:101E400070617265204E6F7468696E672C205768E8
:101E50006963682057617320506F696E746C657395
:101E6000732E0020457870656374656420706F6917
:101E70006E74657220746F206265204E554C4C0064
:101E80002041637475616C20706F696E7465722097
:101E9000776173204E554C4C00496E76616C6964D5
:101EA00020466C6F6174205472616974002D2D2D71
:101EB0002D2D2D2D2D2D2D2D2D2D2D2D2D2D2D2D52
:101EC0002D2D2D2D00204661696C757265732000E3
:101ED0002049676E6F726564200046756E63746991
:101EE0006F6E200020417267756D656E7420000072
:101EF000001F0008091F00081B1F00081F1F000803
:101F0000496E66696E697479004E656761746976B9
:101F10006520496E66696E697479004E614E0044B1
:101F2000657465726D696E61746500000000000083
:101F30000000000102030406070809000000000178
:101F400002030400641F00080000002018000000C5
:101F50005A1B00087C1F00081800002080050000A4
:101F60006A1B0008010000001000000000000000D3
:0C1F70000024F40000000000000000004D
:0400000508000131BD
:00000001FF
