:020000040800F2
:10000000A00600204501000877270008B32100085A
:1000100075270008810300088130000800000000F7
:10002000000000000000000000000000A127000800
:10003000890300080000000079270008A3270008B2
:100040005F0100085F0100085F0100085F01000810
:100050005F0100085F0100085F0100085F01000800
:100060005F0100085F0100085F0100085F010008F0
:100070005F0100085F0100085F0100085F010008E0
:100080005F0100085F0100085F0100085F010008D0
:100090005F0100085F0100085F0100085F010008C0
:1000A0005F0100085F0100085F0100085F010008B0
:1000B0005F0100085F0100085F0100085F010008A0
:1000C0005F0100085F0100085F0100085F01000890
:1000D0005F0100085F0100085F0100085F01000880
:1000E0005F0100085F0100085F0100085F01000870
:1000F0005F0100085F0100085F0100085F01000860
:100100005F0100085F0100085F0100085F0100084F
:100110005F0100085F01000819280008492800084D
:100120005F0100085F0100085F0100085F0100082F
:10013000DFF80CD000F0A4F8004800472D3A000882
:10014000A00600200648804706480047FEE7FEE775
:10015000FEE7FEE7FEE7FEE7FEE7FEE7FEE7FEE777
:100160001728000831010008202A04DB203A21FA70
:1001700002F00021704721FA02F3D040C2F12002C0
:10018000914008431946704740EA01039B0703D09A
:1001900009E008C9121F08C0042AFAD203E011F8C6
:1001A000013B00F8013B521EF9D27047D2B201E088
:1001B00000F8012B491EFBD270470022F6E710B56C
:1001C00013460A4604461946FFF7F0FF204610BDC5
:1001D000421C10F8011B0029FBD1801A7047A0E8CF
:1001E000004FF0C040F804DB01B5AFF30080BDE87C
:1001F000024001C10020704700F12C080C4658F85D
:10020000040DAFF3008058F8040D8546200008BFA8
:10021000012038E9F00018E9004F70472DE9F05F40
:100220000546002092469B46884606468146402465
:100230001BE02846414647462246FFF795FF5346B6
:100240005A46C01A914110D311461846224600F072
:1002500029F82D1A67EB01084F462246012000219C
:1002600000F020F817EB00094E41201EA4F1010414
:10027000DFDC484631462A464346BDE8F09F000091
:10028000064C074D06E0E06840F0010394E80700E3
:1002900098471034AC42F6D3FFF74EFF743F000886
:1002A000943F0008202A04DB203A00FA02F10020E3
:1002B00070479140C2F1200320FA03F319439040A4
:1002C000704770B5044620688168C943C9071BD1CF
:1002D000816821F00101816000F03CFC05460EE0E0
:1002E00000F038FC401B022809D9A06A40F0100039
:1002F000A062E06A40F00100E062012070BD206869
:100300008068C043C007EBD0002070BDF8B504463C
:100310000026009620688168C943C9072AD08168F1
:1003200041F001018160144814490068B0FBF1F00C
:10033000009002E00098401E009000980028F9D13B
:1003400000F008FC054610E000F004FC401B022809
:100350000BD9A06A40F01000A062E06A40F00100F2
:10036000E06284F824600120F8BD20688068C04302
:10037000C007E9D10020F8BD2800002040420F004E
:10038000FEE7704770477047704772B6FEE700009F
:10039000F8B504460026009694F82400012809D0F8
:1003A000012084F824002046FFF78BFF0746380021
:1003B00002D058E00220F8BDA06A20F4885040F036
:1003C0000200A062022000F0C3FE29490968B1FBC7
:1003D000F0F04000009002E00098401E009000986D
:1003E0000028F9D12046FFF791FF2068816841F08D
:1003F0000801816000F0AEFB05460EE000F0AAFBAC
:10040000401B0A2809D9A06A20F0020040F0100021
:10041000A06284F824600120F8BD2068806800078D
:10042000ECD42068816841F00401816000F092FB07
:1004300005460EE000F08EFB401B0A2809D9A06A91
:1004400020F0020040F01000A06284F82460012037
:10045000F8BD206880684007ECD4A06A20F0020054
:1004600040F00100A06284F824603846F8BD000026
:1004700028000020F8B500230025009590F82420DE
:10048000012A12D0012280F824204A681F26072A58
:100490000DD20468676B521E02EB82029640B7438E
:1004A0000E689640374367631AE00220F8BD0D2AB4
:1004B0000BD20468276BD21F02EB82029640B7432F
:1004C0000E689640374327630AE00468E76A0D3AEE
:1004D00002EB82029640B7430E6896403743E762CC
:1004E0000A6807260A2A0BD30468E7680A3A02EB6F
:1004F00042029640B7438E6896403743E76009E072
:100500000468276902EB42029640B7438E68964022
:10051000374327610A68102A01D0112A23D1144CCD
:100520000268A2421AD1946824021CD4946844F44C
:10053000000494600968102915D10E490E4A096813
:10054000B1FBF2F101EB81014900009102E0009959
:10055000491E009100990029F9D104E0816A41F017
:1005600020018162012380F824501846F8BD000064
:10057000002401402800002040420F000068C06CA9
:10058000704700002DE9F04104460025002C03D0FF
:10059000A06A002618B108E00120BDE8F081E662FB
:1005A00084F82460204600F07FF82046FFF789FE9B
:1005B000A16AC90600D428B1A06A40F01000A06268
:1005C0000120EAE7A16A21F4885141F00201A16209
:1005D000324923688B4206D1E169B1F5402F03D13E
:1005E0004FF4002100E0E169277B41EA470261689E
:1005F0000A43A1684FF4807C614508D0012906D0E8
:10060000002194F81480B8F1010F02D00AE061468D
:10061000F7E7C7B1A76A47F02007A762E76A47F084
:100620000107E7625F6827F469470F435F6021684D
:100630008B681B4F3B4013438B60A168614509D019
:10064000012907D009E0A7697F1E41EA473141F43B
:100650000061E7E7218A491E0D052168CB6A23F472
:1006600070032B43CB62216889680E4B194091427D
:1006700007D1E662A16A21F0020141F00101A16205
:100680008BE7A06A20F0020040F01000A062E06A50
:1006900040F00100E06201207FE70000003C0140E3
:1006A000FDF7E1FFFE0E1FFF00B585B000210191AF
:1006B00002910391049100680E49884217D10E48B7
:1006C000816941F400718161816901F400710091D7
:1006D000816941F004018161806900F004000090AB
:1006E00003200190029001A9044800F021F905B00F
:1006F00000BD00000024014000100240000801403D
:100700002DE9F84304460D460027009700F022FA31
:10071000064620688168C90508D5A06A40F0200017
:10072000A06284F824700120BDE8F8834168C905FF
:1007300003D4C06A10F4700F2DD0022000F008FD21
:100740003B490968B1FBF0F820680169394A114258
:100750004FEA62024FEAA21322D1C1684FEA621C3B
:1007600011EA0C0F1CD10169114228D1C06818424E
:1007700025D1142026E0681C0DD025B100F0EAF93F
:10078000801BA84207D9A06A40F00400A06284F848
:1007900024700320C8E7206800688007EBD52AE0B2
:1007A0000169114202D1C168194206D00269224989
:1007B0000A4206D1C068084203D1542002E0292031
:1007C00000E0FC2008FB00F812E0681C0DD025B109
:1007D00000F0C0F9801BA84207D9A06A40F00400CD
:1007E000A06284F8247003209EE70098401C0090CB
:1007F00000984045E9D321686FF012000860A06AB4
:1008000040F40070A06220688068C0F3424007286E
:100810000CD1207B50B9A06A20F48070A062A06A3D
:10082000C00403D4A06A40F00100A06200207BE76E
:1008300028000020244992244992240070B50446DF
:1008400094F8240001280CD0012084F824002046CC
:10085000FFF75CFD0146002229B184F824200846F8
:1008600070BD022070BDA06A40F20123984340F49D
:100870008070A062234D2068234BA84218D11E68C7
:1008800016F4702F14D0A66A46F48016A6621E686D
:10089000760505D5A66A26F4005646F48056A6626B
:1008A000A66AF60412D5E66A26F00606E6620EE0AF
:1008B000A66A26F48016A66246687605F0D5A66A72
:1008C00026F4005646F48056A662E9E7E26284F810
:1008D00024206FF00202026020688268C2F3424264
:1008E000072A05D1A84208D11A6812F4702F04D043
:1008F000826842F480128260B1E7826842F4A0020A
:100900008260ACE7002801400424014070B5044631
:1009100000F020F90546601C02D004480078044429
:1009200000F018F9401BA042FAD370BD1C00002053
:100930002DE9F84F00240023DFF8E0914FF00F0875
:1009400009F1040A0AF1040B0BF1040EDFE00127A0
:10095000A7403A40BA4275D1DFF8C4C14D68A5EB53
:100960000C0665452BD00DDC032D34D005DC35B3EA
:10097000012D19D0022D2FD11BE0112D16D0122DD3
:100980002AD119E0B6F5881F19D006DCB6F5803FEC
:1009900015D0B6F5801F1FD111E0B6F5001F0ED09F
:1009A000B6F5041F18D10AE0CB6815E0CB681B1D13
:1009B00012E0CB6808330FE0CB680C330CE08B6897
:1009C00023B1012B04D00823476105E0042303E091
:1009D0000823076100E00023FF2A01D8054601E053
:1009E00000F1040502D84FEA840603E0A4F10806EA
:1009F0004FEA86062F6808FA06FC27EA0C0703FA76
:100A000006F647EA06072F604D68ED007ED5454D96
:100A1000AE6946F00106AE61AD6905F001050095CD
:100A2000414D24F003067719BE68A5072D0F08FA7B
:100A300005FC26EA0C06DFF8F4C0604503D14FF050
:100A4000000C25E062E0DFF8E8C0604502D14FF01D
:100A5000010C1DE0DFF8DCC0604502D14FF0020C54
:100A600016E0DFF8D4C0604502D14FF0030C0FE070
:100A7000DFF8C8C0604502D14FF0040C08E0DFF891
:100A8000C0C0604502D14FF0050C01E04FF0060CEC
:100A90000CFA05FC4CEA060CC7F808C04D68ED03DB
:100AA00005D5D9F800501543C9F8005004E0D9F82D
:100AB00000509543C9F800504D68AD0305D5DAF8EC
:100AC00000501543CAF8005004E0DAF8005095438E
:100AD000CAF800504D68ED0205D5DBF8005015430B
:100AE000CBF8005004E0DBF800509543CBF8005001
:100AF0004D68AD0205D5DEF800501543CEF8005024
:100B000004E0DEF800509543CEF80050641C0A68FB
:100B100032FA04F57FF41BAFBDE8F88F0004014002
:100B200000001110001002400000014000080140C8
:100B3000000C014000100140001401400018014069
:100B4000001C0140002A01D00161704709040161C5
:100B50007047000001488068704700001C000020BA
:100B600090F83D007047000070B50446002C04D09A
:100B700094F83D00002510B106E0012070BD84F816
:100B80003C50204600F01CFA242084F83D002068E8
:100B9000016821F0010101602068016841F4004111
:100BA00001602068016821F40041016000F07EFCD2
:100BB0004F4B6168994203D84E49884203D304E001
:100BC0004D49884201D2012070BD4C49B0FBF1F182
:100BD0002268566826F03F060E43566062689A42C5
:100BE00001D8491C07E04FF4967251434FF47A72D2
:100BF000B1FBF2F1491C2268166A26F03F06314328
:100C000011626168994210D84900401EB0FBF1F2B0
:100C1000521CC2F30B02042A01D2042022E0B0FBD2
:100C2000F1F0401CC0F30B001CE0A268F2B301EB32
:100C3000C10303EB0116431EB3FBF6F35B1C43F445
:100C400080431B0549D092B301EBC10202EB0111B5
:100C5000401EB0FBF1F0401CC0F30B0040F480409C
:100C600040F400402168CA694CF6FF739A43104370
:100C7000C861D4E9071001432068026822F0C0026D
:100C800011430160D4E9030101432068826848F2FE
:100C9000FF339A4311438160D4E905100143206872
:100CA000C26822F0FF021143C16001E00EE016E0CD
:100CB0002068016841F0010101602564202084F86A
:100CC0003D00256384F83E50002070BD01EB4106D5
:100CD000431EB3FBF6F35B1CB3E70120C2E701EB55
:100CE0004101401EB0FBF1F0401CC0F30B00B7E720
:100CF000A086010080841E0000093D0040420F00D4
:100D00002DE9FF4F81B004468B461F46FFF722FFB7
:100D10000546012694F83D00202803D0022005B0A6
:100D2000BDE8F08F1923012251492046009501F0BA
:100D300036FB08B10220F2E794F83C00012807D006
:100D4000012084F83C0020680168C90702D005E052
:100D50000220E4E7016841F00101016020680168B8
:100D600021F400610160242084F83D004FF0000A66
:100D7000C4F840A03F48E0624FF0200920680168B5
:100D800041F4807101603B4600224FF00111204682
:100D9000009501F004FB40B120680068C00502D551
:100DA0004FF4007020640320B9E721680BF0FE00C7
:100DB0000861FFF7CFFE054620684169C1F3400195
:100DC0004069C0F380204FF0A0080EE0FFF7C2FE9C
:100DD000401BB84200D80FB984F83D8020684169B3
:100DE000C1F340014069C0F3802094F83D20A02A5F
:100DF00002D009B90028E9D084F83D902068416903
:100E0000C943890718D42168096841F40071016059
:100E10002068416980690090192301221449204605
:100E2000009501F0BCFA08B1012078E784F83D9004
:100E300084F83CA0002072E7016841F40071016071
:100E400021686FF480604861192301220849204617
:100E5000009501F0A4FA08B1012060E7761C039820
:100E600086428BD384F83D9084F83CA0012056E75D
:100E7000020010000000FFFF2DE9F84F04468A46EB
:100E800015469946DDF82880FFF764FE064694F87B
:100E90003D00202802D00220BDE8F88F192301224E
:100EA00045492046009601F07AFA08B10220F3E79E
:100EB00094F83C00012807D0012084F83C00206809
:100EC0000168C90702D005E00220E5E7016841F0AA
:100ED000010101602068016821F4006101602120A6
:100EE00084F83D00102084F83E00002727646562E6
:100EF000A4F82A90608D20853048E062334642464F
:100F00005146204601F06EF908B10120C4E720687F
:100F10004169806900903EE032464146204601F03A
:100F2000CFFA48B1206C042804D12068016841F44C
:100F3000007101600120AFE7606A216800780861F4
:100F4000656A6D1C6562608D401E6085208D401E47
:100F500080B2208522685169C94349070BD450B13A
:100F600028781061606A401C6062608D401E608558
:100F7000208D401E208532464146204601F0E8F98A
:100F800048B1206C042804D12068016841F4007144
:100F90000160012080E7208D0028BDD11F3454F866
:100FA0001F0C016841F4007101602020A077E777F1
:100FB0006777002070E70000020010000000FFFFCC
:100FC00010B586B00021029103910491059100684B
:100FD0000F4988421AD10F4CA06940F00800A06167
:100FE000A06900F008000190C02002901220039038
:100FF0000320059002A90848FFF79AFCE06940F435
:101000000010E061E06900F40010019006B010BD2E
:101010000054004000100240000C0140024881686A
:1010200002781144816070471C00002010B5074809
:10103000016841F010010160032000F077F8002002
:1010400000F006F800F026F8002010BD0020024055
:1010500070B504460D4D4FF47A712878B1FBF0F06D
:101060000B490968B1FBF0F000F03CFC08B101202D
:1010700070BD102C07D200222146501E00F036F819
:101080006C60002070BD012070BD00001C000020BD
:101090002800002008B50C48816941F001018161F8
:1010A000816901F001010091C16941F08051C16184
:1010B000C06900F0805000900449486820F0E0606A
:1010C00040F00070486008BD001002400000014080
:1010D000002809DB00F01F02012191404009800037
:1010E00000F1E020C0F8001170470000F0B40D4698
:1010F0000D4B1B68C3F30223C3F10704042C00D972
:101100000424191D072901D2002300E0DB1E01265B
:1011100006FA04F1491E294099409E40761E164069
:101120003143F0BC01F0DABF0CED00E000F0070144
:10113000054A10684FF6FF03184040EA01200349B2
:1011400008431060704700000CED00E00000FA0555
:1011500010B586B0014632A090E81C00C068CDE909
:1011600003340292059032A0006801900020314CB7
:10117000042931D00EDC012938D0022908D100F031
:10118000A5F96168C1F38131491C4900B0FBF1F058
:1011900006B010BD082924D01029F9D16168226851
:1011A000D201F5D502A8C1F38342805CC90309D5F9
:1011B000616801AAC1F34041515C1F4AB2FBF1F1E1
:1011C000484301E01D49484361684902E0D44000BA
:1011D0000321B0FBF1F0DBE706B0BDE8104000F002
:1011E00085B906B0BDE8104000F080B9216AC1F3AE
:1011F0000122012A03D1890701D5D003C8E7022AB9
:1012000005D1616A890702D549F64040C0E7032A43
:10121000BED121688903BBD54FF22440B8E7000056
:1012200002030405060708090A0B0C0D0E0F101027
:10123000010200000010024000127A0000093D0087
:101240002DE9F8430446DFF8F8802078C0075FD026
:101250000027D8F81C00C0000BD4D8F81C0040F0C0
:101260008050C8F81C00D8F81C0000F08050009096
:101270000127344D2868C00512D4286840F48070D6
:101280002860FFF767FC064607E0FFF763FC801B5A
:10129000642802D90320BDE8F8832868C005F4D586
:1012A000D8F8200000F4407010B3A18801F4407118
:1012B00081421DD0D8F8200020F44070224901223C
:1012C0000A6000220A60C8F82000C00710D0FFF7AB
:1012D00041FC054641F2883606E0FFF73BFC401B27
:1012E000B04201D90320D6E7D8F820008007F4D512
:1012F000D8F82000616820F440700843C8F8200046
:10130000012F05D1D8F81C0020F08050C8F81C002F
:101310002078800707D5D8F80400A16820F4404061
:101320000843C8F804002078C00607D5D8F80400A0
:10133000616920F480000843C8F804000020AAE78F
:101340000010024000700040400442422DE9F04786
:1013500004460D46002C17D0DFF83081D8F8000085
:1013600000F00700A84211D2D8F8000020F00700D2
:101370002843C8F80000D8F8000000F00700A84291
:1013800004D00120BDE8F0870120FBE72068404E33
:10139000810712D5400703D5706840F4E0607060A3
:1013A0002078000703D5706840F460507060706862
:1013B000A16820F0F000084370602078C0072CD0AE
:1013C0006068012806D0022809D0316889070BD44B
:1013D0000120D7E73168890306D40120D2E73168BC
:1013E000890101D40120CDE7716821F00301014397
:1013F0007160FFF7AFFB074641F2883906E0FFF75F
:10140000A9FBC01B484501D90320BBE77068616890
:1014100000F00C00B0EB810FF1D1D8F8000000F023
:101420000700A8420ED9D8F8000020F00700284392
:10143000C8F80000D8F8000000F00700A84201D06A
:1014400001209FE72078400705D57068E16820F407
:10145000E060084370602078000706D57068216955
:1014600020F4605040EAC100706000F03FF87168FD
:10147000084AC1F30311515CC84007490860074896
:101480000068FFF7E5FD00207CE700000020024037
:10149000001002405B3F00082800002020000020D0
:1014A00001480068704700002800002000B5FFF7E1
:1014B000F7FF04494968044AC1F30221515CC8405E
:1014C00000BD0000001002406B3F000800B5FFF7B0
:1014D000E7FF04494968044AC1F3C221515CC8408E
:1014E00000BD0000001002406B3F000885B014A052
:1014F00090E80E00C068CDE902230191049014A089
:1015000000680090134B5968134801F00C02042A3C
:1015100010D0082A0ED101A8C1F38342805CC90310
:101520000AD55968C1F340411DF801100A4A5043D9
:10153000B0FBF1F005B0704708494843FAE70000F6
:1015400002030405060708090A0B0C0D0E0F101004
:10155000010200000010024000127A0000093D0064
:101560002DE9F84F0446002C0ED02078D94DC00745
:101570005ED06868C0F3810001280BD06868C0F3B2
:101580008100022803D00CE00120BDE8F88F6868D4
:10159000C00306D5286880034AD56068A8BB01202F
:1015A000F3E76068B0F5803F11D0A8B1B0F5A02F87
:1015B0001BD0286820F480302860286820F4802020
:1015C0002860606830B3FFF7C5FA06461EE0286859
:1015D00040F480302860F4E7286820F480302860E8
:1015E000286820F480202860EBE7286840F48020F9
:1015F0002860286840F480302860E2E7FFF7AAFA04
:10160000801B642802D90320BFE711E0286880030B
:10161000F4D50DE0FFF79EFA064606E0FFF79AFACA
:10162000801B642801D90320AFE728688003F5D424
:101630002078DFF8A48280074FF0010A4FF00009FC
:1016400045D5686810F00C0F07D06868C0F38100BA
:10165000022812D16868C0030FD42868800704D517
:101660002069012801D001208FE72868616920F0F6
:10167000F80040EAC100286029E02069B8B1C8F844
:1016800000A0FFF767FA064606E0FFF763FA801B43
:10169000022801D9032078E728688007F5D5286853
:1016A000616920F0F80040EAC10028600FE0C8F846
:1016B0000090FFF74FFA064606E0FFF74BFA801B53
:1016C000022801D9032060E728688007F5D4207834
:1016D000000726D58148A16999B1C0F800A0FFF79D
:1016E00039FA064606E0FFF735FA801B022801D9D1
:1016F00003204AE7686A8007F5D5012001F03EF82B
:101700000FE0C0F80090FFF725FA064606E0FFF765
:1017100021FA801B022801D9032036E7686A800776
:10172000F5D42078400773D50026E869C00008D4B6
:10173000E86940F08050E861E86900F0805000906E
:101740000126DFF89CB1DBF80000C00514D4DBF8FB
:10175000000040F48070CBF80000FFF7FBF907466B
:1017600006E0FFF7F7F9C01B642801D903200CE756
:10177000DBF80000C005F4D5E068012812D0B0B154
:1017800005281DD0286A20F001002862286A20F070
:1017900004002862E06841F2883B28B3FFF7DAF9D9
:1017A00007461DE0286A40F001002862F2E7286A37
:1017B00020F001002862286A20F004002862E9E78E
:1017C000286A40F004002862286A40F0010028627C
:1017D000E0E7FFF7BFF9C01B584501D90320D4E665
:1017E000286A8007F5D50DE0FFF7B4F9074606E053
:1017F000FFF7B0F9C01B584501D90320C5E6286A98
:101800008007F5D4012E03D1E86920F08050E8610B
:10181000E069A0B36968C1F38101022946D00228BA
:1018200005D0C8F86090FFF795F904463AE0C8F88B
:101830006090FFF78FF9064606E0FFF78BF9801BF3
:10184000022801D90320A0E628688001F5D4206A87
:10185000B0F5803F05D16868A16820F400300843E6
:101860006860D4E908010843696821F474110843E9
:101870006860C8F860A0FFF76DF9044607E026E04D
:10188000FFF768F9001B022801D903207DE62868CC
:101890008001F5D51BE0FFF75DF9001B022801D997
:1018A000032072E628688001F5D410E001280CD0EE
:1018B0006868226A00F48031914204D1616A00F4C0
:1018C0007010884203D001205FE601205DE6002011
:1018D0005BE60000001002400000424280044242E9
:1018E0000070004010B5401EB0F1807F01D3012090
:1018F00010BD4FF0E02460610F21601701F0EEFB96
:101900000020A06107202061002010BD70477047B3
:1019100070B590F83C20012A2BD0012680F83C605D
:10192000022280F83D2002685368956823F0700415
:101930000B6823435360104B02689A420ED00F4B42
:101940009A420BD0B2F1804F08D00D4B9A4205D08D
:101950000C4B9A4202D00C4B9A4204D125F08003E2
:101960004968194391603C304670002101700020A5
:1019700070BD022070BD0000002C01400034014009
:101980000004004000080040000C004010B5044670
:10199000002C03D094F83D0010B107E0012010BDE9
:1019A000002084F83C00204600F016F8022084F85D
:1019B0003D00211D206800F06DFF01203D34607264
:1019C0006070A070E07020716071A071E071207291
:1019D0002070002010BD000008B500681B49B0F160
:1019E000804F14D01A4A90421AD1C86940F01000B2
:1019F000C861C86900F0100000900022114636202E
:101A0000FFF774FBBDE808403620FFF761BBC869EB
:101A100040F00100C861C86900F00100009008BDF5
:101A20000C4A9042FBD1C86940F02000C861C869E7
:101A300000F020000090002211463720FFF756FBEF
:101A4000BDE808403720FFF743BB0000001002400C
:101A5000001000400014004090F83D10012901D012
:101A600001207047022180F83D100168CA6842F0E9
:101A70000102CA600068114988420ED010498842AC
:101A80000BD0B0F1804F08D00E49884205D00E49E6
:101A9000884202D00D49884209D1816801F00701CE
:101AA000062908D0016841F00101016003E00168E6
:101AB00041F001010160002070470000002C01404E
:101AC000003401400004004000080040000C0040C9
:101AD0000168CA6822F00102CA6001680A6A41F21C
:101AE00011131A4207D10A6A9B101A4203D10A68DD
:101AF00022F001020A60012180F83D1000207047A9
:101B000070B5044694F83C00012817D0012584F8EC
:101B10003C50022084F83D002068826822F0770261
:101B200022F47F4282600868502831D00DDC2028E2
:101B30004DD005DCB0B310284ED148E0022070BD76
:101B4000302844D0402847D137E060282BD0702877
:101B500006D0B0F5805F3FD0B0F5005F3CD10BE020
:101B6000CB68D1E90121206800F0E9FE2068816896
:101B700041F0770181602FE0CB68D1E90121206835
:101B800000F0DDFE2068816841F48041816023E03F
:101B9000CA684968206800F0B5FF5021206800F04D
:101BA000D8FE19E013E0CA684968206800F0BBFF5E
:101BB0006021206800F0CDFE0EE0CA684968206808
:101BC00000F0A0FF4021206800F0C3FE04E022687E
:101BD0000146104600F0BDFE3C34657000202070C8
:101BE00070BD704770B50446206801694FF000056C
:101BF000C943890716D4C168C943890712D4E91EAD
:101C000001610120207720688069800703D0204689
:101C1000FFF7E7FF05E0204600F0CCF8204600F093
:101C200059F9257720680169C943490718D4C16863
:101C3000C943490714D46FF00401016102202077E1
:101C40002068806910F4407F03D02046FFF7C9FF69
:101C500005E0204600F0AEF8204600F03BF925777D
:101C600020680169C943090717D4C168C943090736
:101C700013D46FF008010161042020772068C06947
:101C8000800703D02046FFF7ACFF05E0204600F0B8
:101C900091F8204600F01EF9257720680169C943B4
:101CA000C90618D4C168C943C90614D46FF010011D
:101CB0000161082020772068C06910F4407F03D0BC
:101CC0002046FFF78EFF05E0204600F073F820461F
:101CD00000F000F9257720680169C943C90708D1D8
:101CE000C168C943C90704D1891E0161204600F0BB
:101CF00095F920680169C943090609D4C168C94337
:101D0000090605D46FF0800101612046FFF7FEFD52
:101D100020680169C943490609D4C168C943490615
:101D200005D46FF040010161204600F078F9206889
:101D30000169C94389060BD4C168C943890607D420
:101D40006FF0200101612046BDE87040FFF7DFBD64
:101D500070BD000000B585B0002101910291039192
:101D600004910068B0F1804F1BD10F48816941F0A8
:101D700004018161806900F0040000904FF400408C
:101D8000019002200290049001A90848FEF7D0FDBE
:101D90000749486820F4407040F0E06040F48070EB
:101DA000486005B000BD000000100240000801407E
:101DB00000000140704770B504460D4694F83C00A1
:101DC00001280AD0012084F83C0042B1042A1AD02C
:101DD000082A2DD00C2A53D13EE0022070BD29469E
:101DE000206800F0BFFD2068816941F00801816131
:101DF0002068816921F004018161206881692A6974
:101E0000114381613CE02946206800F0DFFD206835
:101E1000816941F4006181612068816921F48061F8
:101E20008161206881692A6941EA0221816127E094
:101E30002946206800F004FE2068C16941F00801CD
:101E4000C1612068C16921F00401C1612068C169D4
:101E50002A691143C16113E02946206800F028FE79
:101E60002068C16941F40061C1612068C16921F441
:101E70008061C1612068C1692A6941EA0221C161AA
:101E8000002084F83C0070BD10B50446002C03D03F
:101E900094F83D0010B107E0012010BD002084F847
:101EA0003C00204600F015F8022084F83D00211D7A
:101EB000206800F0EFFC01203D3460726070A0707B
:101EC000E07020716071A071E071207220700020BC
:101ED00010BD70477047000010B50446002909D0B6
:101EE00004290AD008290BD094F8410001280AD00F
:101EF000012010BD94F83E00F8E794F83F00F5E7A4
:101F000094F84000F2E7022079B3042931D008297F
:101F100032D084F841000122206800F003FD1B4A02
:101F200020681B49904201D0884203D1436C43F49E
:101F300000434364206890420DD088420BD0B0F13A
:101F4000804F08D01349884205D01349884202D0F7
:101F50001249884213D1816801F00701062912D085
:101F6000016841F0010101600DE0FFE784F83E00E7
:101F7000D1E784F83F00CEE784F84000CBE7016862
:101F800041F001010160002010BD0000002C014063
:101F9000003401400004004000080040000C0040F4
:101FA00030B504460D4600222946206800F0BAFCF0
:101FB000184A41F2111120688B10904202D0164A43
:101FC000904209D1026A0A4206D1026A1A4203D13A
:101FD000426C22F4004242642068026A0A4206D13E
:101FE000016A194203D1016821F001010160012059
:101FF0003DB1042D08D0082D09D084F841000020FF
:1020000030BD84F83E00FAE784F83F00F7E784F833
:102010004000F4E7002C0140003401407047704755
:1020200070B50446002C04D094F83900002510B196
:1020300006E0012070BD84F83850204600F022F8F8
:10204000242084F839002068C16821F40051C1605F
:10205000204600F07BFD2068016921F49041016178
:102060002068416921F02A0141612068C16841F47A
:102070000051C160E563202084F8390084F83A00FB
:10208000002070BD30B585B0002401940294039403
:10209000049400681449884224D11448816941F4A9
:1020A00080418161816901F480410091816941F041
:1020B00004018161806900F0040000904FF4007019
:1020C00001900220029003200490094D01A92846A6
:1020D000FEF72EFC291501910294039401A92846CC
:1020E000FEF726FC05B030BD00380140001002406C
:1020F000000801402DE9F84304460E4615461F46E8
:1021000094F83900202802D00220BDE8F883C6B137
:10211000BDB194F83800012815D0012084F83800AA
:102120004FF00009C4F83C90212084F83900FEF7F4
:1021300011FD8046A584E584A068B0F5805F04D0D9
:1021400005E00120E1E70220DFE7206920B1354604
:10215000002684F8389013E00025FAE74346002271
:1021600080212046009700F04DFD08B10320CCE708
:102170009DB1216815F8010B4860E08C401EE08499
:10218000E08C0028EAD143460022402120460097F7
:1021900000F038FD40B10320B7E736F8020B2168A4
:1021A000C0F308004860E8E7202084F839000020E8
:1021B000ABE7FEE701684A69D24352050FD46FF4DA
:1021C00080624A61002140F8301F202242738173EF
:1021D000026942F00402026101730120704700208D
:1021E00070470000F8B504460D4617461E46E06AE3
:1021F000082808D0012806D010F5803F03D0206BB6
:10220000122806D00AE02068016841F4807101605C
:1022100004E02068016841F4807101603B460022BF
:102220004FF001112046009600F0B9F840B1206847
:102230000068C00502D54FF4007020640320F8BD8B
:102240002069B0F5804F0FD005F44070F02141EACD
:10225000D0102168086133463A460D49204600F007
:10226000DBF830B10120F8BD216805F0FE000861FF
:1022700002E02168E8B20861054933463A46891F01
:10228000204600F0C9F808B10120F8BD0020F8BDD3
:10229000080001002DE9F04198B080460F46182251
:1022A0001FA112A8FDF770FF12A8FDF791FF82B2DF
:1022B0004FF0FF36334612A93846FFF71BFF0024C4
:1022C000350C05EA44010A2301224046FEF718FDB9
:1022D00098B13346012218A13846FFF70BFF641C62
:1022E000A4B2802CEDD33346022214A13846FFF766
:1022F00001FF18B00020BDE8F08160000090234687
:102300000FA2402102A800F0BDFE02A8FDF760FF69
:1023100082B2334602A93846FFF7ECFEDFE7000041
:102320005363616E6E696E67204932432062757334
:102330002E2E2E0D0A0000002E0000000D0A0000B7
:10234000307825303258283078253032582900002E
:1023500070B504460D4616460DE02046FFF72AFFED
:1023600008B1012070BD681C05D0FEF7F3FB801B8F
:10237000A84207D835B120684069C0434007ECD473
:10238000002070BD002044F8300F20216173A0733D
:10239000216941F0200121612073012070BD2DE9E8
:1023A000F0470446DDF820900E4690461D46C6F3E1
:1023B000074708E0681C06D0FEF7CCFBA0EB09003D
:1023C000A8420FD875B1012F19D02068806926EA7C
:1023D00000000004000C1DD000204045EAD0002081
:1023E000BDE8F087002044F8300F20216173A0730E
:1023F000216941F02001216120730120F0E720686C
:10240000406926EA00000004000C01D00020E4E747
:102410000120E2E70120E0E72DE9F04704460E46FF
:10242000154698464FF000094FF0200AC6F30747BB
:1024300025E020684069C043400517D42068016842
:1024400041F40071016021686FF480604861C4F854
:10245000309084F83DA084F83E90206C40F0040059
:10246000206484F83C900120BDE8F087681C06D009
:10247000FEF770FBA0EB0800A8420BD855B1012F66
:1024800016D02068806926EA00000004000CD0D134
:102490000020E9E7C4F8309084F83DA084F83E902D
:1024A000206C40F02000206484F83C900120DBE7A1
:1024B0002068406926EA00000004000CE8D0B8E774
:1024C00070B504460D4616460DE02046FFF772FE35
:1024D00008B1012070BD681C05D0FEF73BFB801BD6
:1024E000A84207D835B120684069C0430006ECD443
:1024F000002070BD002044F8300F20216173A073CC
:10250000216941F0200121612073012070BD00008C
:102510003EB500240094019402940F480D490160D7
:102520008460047304754FF46021C1614460012527
:102530000561FEF727F808B1FDF727FF0094019524
:10254000029469460448FDF795FF002801D0FDF785
:102550001CFF3EBD002401403800002030B585B08E
:10256000002401940294039404941A48816941F070
:1025700010018161816901F010010091816941F0D0
:1025800004018161816901F004010091816941F0D8
:1025900008018161806900F0080000900E4D002262
:1025A000C8212846FEF7CEFAC821019101210291E7
:1025B00003940221049101A92846FEF7B9F93020BD
:1025C00001900294039401A92846FEF7B1F905B0E1
:1025D00030BD0000001002400008014010B50C485A
:1025E0000A4901600B49416000218160C1604FF4DC
:1025F0008042026141618161C1610162FEF7B4FA0A
:10260000002801D0FDF7C1FE10BD000000540040BD
:1026100068000020A086010030B58DB00024099428
:102620000A940B940C94079408941C216846FDF7B7
:10263000C4FD1E484FF0804101600925456084605B
:102640006321C16004618461FFF7A0F908B1FDF75F
:102650009CFE4FF48050099009A91448FFF750FAE6
:1026600008B1FDF792FE1148FFF70EFC08B1FDF727
:102670008CFE20200790089407A90C48FFF748F922
:1026800008B1FDF782FE6020009001950294049449
:10269000002269460548FFF78EFB08B1FDF775FE7D
:1026A0000248FFF757FB0DB030BD0000BC00002012
:1026B0001CB50024009401940E480D49016040F2BD
:1026C000E7314160846040F65F11C1608461FFF7CB
:1026D0005DF908B1FDF759FE20200090019469468C
:1026E0000448FFF715F9002801D0FDF74EFE1CBD88
:1026F00000100040040100201CB500240094019447
:102700000E480D49016040F2E7314160846045F6B2
:10271000BF51C1608461FFF739F908B1FDF735FE9B
:1027200020200090019469460448FFF7F1F8002842
:1027300001D0FDF72AFE1CBD001400404C01002012
:1027400010B50B48094901604FF416514160002152
:102750008160C16001610C2242618161C161FFF74A
:102760005FFC002801D0FDF710FE10BD00380140CD
:1027700094010020FEE7FEE77047000008B5074916
:102780004FF4FA520968B1FBF2F14143009100BFE6
:102790000098411E0091FAD208BD000028000020D8
:1027A0007047FEF73BBC30B595B028210BA8FDF76C
:1027B00004FD142106A8FDF700FD18216846FDF769
:1027C000FCFC01200B9001040C9100240D940F904F
:1027D000022512951391800414900BA8FEF7C0FEF9
:1027E00008B1FDF7D2FD0F200690079508940994D3
:1027F0000A94002106A8FEF7A9FD08B1FDF7C5FD62
:10280000009502946846FEF71BFD002801D0FDF7F5
:10281000BCFD15B030BD704710B5094C2068B0F54F
:10282000C87F01D327202060206800F0D1FE2068F7
:10283000401D2060BDE810400248FFF7D3B90000FA
:10284000000000200401002010B50E4C2078401C30
:10285000C0B22070052802D00F2803D00CE000F091
:10286000BFFE09E000F0C6FE00202070064800F020
:10287000DBFE064901200870BDE810400448FFF760
:10288000B1B900000C000020180000201400002046
:102890004C0100202DE9F04102681D4D1D4E1E4FD8
:1028A000DFF878C01E4B4FF08048A84209D098420C
:1028B00007D0404505D0B04203D0B84201D06045B2
:1028C00003D122F070044A682243A84209D09842FA
:1028D00007D0404505D0B04203D0B84201D0604592
:1028E00003D122F44074CA6822434C6922F080026A
:1028F000224302608A68C2620A688262A84201D0EA
:10290000984201D10969016301214161BDE8F0816B
:10291000002C01400004004000080040000C004072
:102920000034014010B501F01F0101238B40046AFF
:102930009C430462036A8A401343036210BD10B5CE
:10294000846824F47F4442EA03220A4322438260DB
:1029500010BD826822F070020A4342F007018160D4
:1029600070470000F0B5026A22F001020262026ABA
:102970004368846924F0700424F003050C682C4338
:1029800022F002058A682A430E4E0F4FB04201D052
:10299000B84205D122F00805CA682A4322F0040291
:1029A000B04201D0B84207D123F4807323F40073FE
:1029B0004D691D438B692B434360846149684163C2
:1029C0000262F0BD002C014000340140F0B5026A03
:1029D00022F010020262036A4268846924F4E0442F
:1029E00024F440740D6844EA052423F020038D6824
:1029F00043EA0513104D114EA84201D0B04206D152
:102A000023F08003CF6843EA071323F04003A84272
:102A100001D0B04209D122F4806222F400624D69F3
:102A200042EA85028D6942EA850242608461496812
:102A300081630362F0BD0000002C014000340140BE
:102A4000F0B5026A22F480720262026A4368C469C5
:102A500024F0700424F003050C682C4322F4007267
:102A60008D6842EA0522104D104EA84201D0B042B6
:102A700006D122F40062CF6842EA072222F4806283
:102A8000A84201D0B04209D123F4805323F400536B
:102A90004D6943EA05138D6943EA05134360C46138
:102AA0004968C1630262F0BD002C0140003401405E
:102AB00030B5026A22F480520262046A4268C36935
:102AC00023F4E04323F440730D6843EA052324F420
:102AD00000548D6844EA0534084DA84202D0084DE0
:102AE000A84204D122F480424D6942EA8512426034
:102AF000C36149680164046230BD0000002C0140DC
:102B00000034014010B5036A046A24F00104046231
:102B1000846924F0F00444EA021423F00A020A4310
:102B20008461026210BD10B5036A23F010030362D2
:102B30008469036A24F4704444EA023223F0A00357
:102B400043EA01118261016210BD000070B50446C4
:102B500020680169E26821F4405111430161A168D4
:102B600020690143606901432068C26841F20C6337
:102B70009A430A43C26020684169A26921F4407106
:102B8000114341611E492068884202D1FEF79EFC34
:102B900001E0FEF78BFC00EBC00101EB0010616867
:102BA00064228900B0FBF1F3B3FBF2F36FF0180677
:102BB0007343B0FBF1F5B0FBF1F605EB830532236F
:102BC00003EB0515B5FBF2F5B6FBF2F605F0F005E3
:102BD00005EB0615B0FBF1F6B0FBF1F0B0FBF2F03F
:102BE0006FF01801484306EB800003EB0010B0FBC8
:102BF000F2F0216800F00F002844886070BD0000EA
:102C0000003801402DE9F04104460E46174698462B
:102C1000069D1DE0681C1BD02DB1FDF79BFFA0EBAE
:102C20000800A84214D92068C16821F4D071C1609D
:102C30002068416921F001014161202084F83900B8
:102C400084F83A00002084F838000320BDE8F081C1
:102C50002068006836EA000004D00020B842D9D0CD
:102C60000020F3E70120F9E770B50546002D1CD0E0
:102C70000E4800F013F90E4CA06888B10D4800F022
:102C80000DF9A06800F00AF9E06830B109480A308F
:102C900000F004F9E06800F001F9044800F0FEF8E3
:102CA0002846BDE8704000F0F9B870BD9F3D0008AF
:102CB000D80100200A3F00082DE9F0470646DDF85C
:102CC00020900D469046154F07F12804386A0028D9
:102CD00001D1786A18B101212046FDF78DFAAE4284
:102CE0001AD0184600F0BAF90D4800F0D7F8494656
:102CF000304600F019F90A481C3800F0CFF8494670
:102D0000284600F011F94046FFF7AEFF0120386277
:102D100001212046FDF770FABDE8F087D8010020B8
:102D2000D23D0008064908600020486008614861FB
:102D30008861C861086248628860C86070470000A6
:102D4000D801002010B5104C606A002803D0E0695B
:102D5000401CE06104E0206A68B1A069401CA061E9
:102D60000020206260620D2000F00AFFBDE81040E4
:102D70000A2000F005BF2169206800F057F90348D8
:102D800000F08CF8ECE70000D8010020A23D00081C
:102D900010B50D2000F0F4FE0A2000F0F1FE1B48F3
:102DA00000F07CF80D2000F0EBFE0A2000F0E8FEB9
:102DB000174C606900F0AAF8164800F06FF8A06997
:102DC00000F0A4F81148183000F068F8E06900F04D
:102DD0009DF80E48233000F061F80D2000F0D0FE81
:102DE0000A2000F0CDFEA06958B10A48233800F04F
:102DF00055F80D2000F0C4FE0A2000F0C1FEA069C5
:102E000010BD04482E3800F049F8F2E7DD3E000816
:102E1000D8010020CA3D000805461D4C04F12806D3
:102E2000206A002801D1606A18B101213046FDF7FF
:102E3000E3F9206800F0FAF8164800F02FF805B31F
:102E40003A2000F09DFEA06890B1134800F026F8EB
:102E5000A06800F023F8E06830B10F480A3000F0B5
:102E60001DF8E06800F01AF80A48083800F016F873
:102E70002878202802D0202000F082FE284600F08A
:102E80000DF80120206201213046FDF7B5F9000060
:102E9000D8010020A73D00080A3F000810B50446ED
:102EA000002C04D110BD204600F005F8641C2078E9
:102EB0000028F8D110BD10B504462078A0F12001FB
:102EC0005E2903D8BDE8104000F05ABE0D280DD091
:102ED0000A2813D05C2000F053FE782000F050FE4A
:102EE0002078BDE81040022100F06AB85C2000F0B4
:102EF00047FEBDE810400D2000F042BE5C2000F00F
:102F00003FFEBDE810400A2000F03ABE10B504466E
:102F1000002804DA2D2000F033FEE443641C204630
:102F2000BDE8104000F068B870B504460D46E806EC
:102F300032D5912D04D02046BDE87040FFF7E6BFA2
:102F4000272000F01DFEA4F120005E2803D8E0B287
:102F500000F016FE0DE00D2C10D00A2C15D05C20D0
:102F600000F00EFE782000F00BFE0221204600F05B
:102F700027F8BDE87040272000F002BE5C2000F07A
:102F8000FFFD722000F0FCFDF3E75C2000F0F8FD8F
:102F90006E2000F0F5FDECE7A80604D52046BDE85C
:102FA000704000F029B8302000F0EAFD782000F0F1
:102FB000E7FD2807C10E2046BDE87040AFF3008052
:102FC00070B505460C46082C13D9082411E0641E80
:102FD000E4B2A00025FA00F000F00F00092804DC9C
:102FE0003030C0B200F0CCFD03E03730C0B200F0AA
:102FF000C7FD002CEBD170BD70B50646012402E080
:1030000004EB84004400B6FBF4F00928F8D80A2544
:10301000B6FBF4F1B1FBF5F005FB1010303000F019
:10302000AFFDB4FBF5F4002CF2D170BD10B50C4629
:10303000FFF734FF3A2000F0A3FD2046FFF766FFBC
:103040003A2000F09DFD04484068FFF727FFBDE8E7
:1030500010403A2000F094BDD801002010B5014680
:1030600005480068FFF7E2FF0448FFF717FFBDE8D7
:1030700010403A2000F084BDD8010020A73D000890
:10308000FEE700000FB41CB50246002007AC002983
:103090000BD0491ECDE90021054B6A462146069812
:1030A00000F03CF8009A002111701CBC5DF814FB84
:1030B0007F3500080FB4084B10B504A902AA039885
:1030C00000F02CF8044602A9002000F063FA204624
:1030D00010BC5DF814FB0000953500080907090EC7
:1030E000002804DB00F1E02080F80014704700F0B5
:1030F0000F0000F1E02080F8141D704702E008C8BE
:10310000121F08C1002AFAD170477047002001E061
:1031100001C1121F002AFBD1704700002DE9FF4FAB
:103120008DB00F460546002606E025280BD0DDE9C8
:103130000F1290476D1C761C28780028F5D111B02D
:103140003046BDE8F08F0024A246A1460122EC499A
:1031500000E0044315F8013F203B02FA03F0084267
:10316000F7D128782A2810D06FF02F022878A0F104
:103170003001092914D80AEB8A0102EB410144F01D
:10318000020400EB010A6D1CF0E701CF5FEA000AC0
:1031900003D544F40054CAF1000A44F002046D1C43
:1031A00028782E2817D115F8010F44F004042A2896
:1031B0000ED06FF02F022878A0F1300109290AD82B
:1031C00009EB890102EB410100EB01096D1CF2E7FB
:1031D00057F8049B6D1C28786C280FD006DC4C280F
:1031E00017D068280DD06A2814D104E0742810D0B4
:1031F0007A280FD10DE044F400140AE044F480145E
:1032000001E044F440146978814202D104F580144D
:103210006D1C6D1C2A786E2A1FD00CDC632A31D0FD
:1032200004DC002A8BD0582A11D1A3E0642A68D08C
:10323000692A0CD165E0732A2ED004DC6F2A73D082
:10324000702A04D19BE0752A6FD0782A6ED0104680
:10325000DDE90F129047761C50E1C4F302500228BA
:1032600006D0032809D0042801CF09D0066045E123
:1032700001CFF117C0E9006140E101CF06803DE1D7
:1032800006703BE117F8040B8DF8000000208DF864
:103290000100EB46012003E057F804BB4FF0FF307C
:1032A00061074FF0000102D40DE008F101018846EA
:1032B00049450FDA8045F8DB1BF808100029F4D1E6
:1032C00008E008F1010188468142FADB1BF808108A
:1032D0000029F6D1DDE90F23AAEB0800814621463B
:1032E00000F036F9304400EB080604E0DDE90F1287
:1032F0001BF8010B9047B8F10108F7D22146484668
:10330000F7E00A21C4F302534FF0000B0891022B9F
:1033100004D001CFC117032B09D00AE0FF1D27F00D
:103320000707F7E8020108E032E01FE020E000B202
:10333000C117042B01D140B2C117031E71F1000364
:1033400007DA4FF0000CD0EB0C006CEB01012D23E1
:1033500002E0230504D52B238DF82430012303E05C
:10336000E30701D02023F7E7984658E00A2110E050
:1033700010210EE010204FF0000B08900CE01021FF
:103380004FF0000B44F004044FF00809089103E0EB
:1033900008214FF0000B0891C4F30253022B04D014
:1033A00001CF0021032B06D006E0FF1D27F0070701
:1033B000F7E8020103E080B2042B00D1C0B24FF065
:1033C000000823072BD5702A07D0DDF820C08CF029
:1033D000100C5CEA0B0C05D00EE040238DF8243075
:1033E000012308E050EA010306D030238DF8243091
:1033F0008DF8252002239846DDF820C08CF0080CBB
:103400005CEA0B0C0BD150EA010301D1630706D52E
:1034100030238DF824304FF00108A9F10109582A12
:1034200004D038A20B9208AA0A920BE03AA2F9E75C
:103430005B46089AFCF7F2FE0B9B9B5C0A9A521EB5
:103440000A92137050EA0102F2D10A98ADEB000023
:1034500000F1200B600702D524F4803401E04FF026
:103460000109D94502DDA9EB0B0000E0002000EBCB
:103470000B0141440890AAEB010AE00306D4DDE900
:103480000F232146504600F063F806444FF0000930
:1034900008E009A911F80900DDE90F12904709F1C8
:1034A0000109761CC145F4DBE0030CD5DDE90F23EF
:1034B0002146504600F04CF8064404E0DDE90F12C6
:1034C00030209047761C0899481E08900029F5DCAA
:1034D00008E00A980A990078491C0A91DDE90F1260
:1034E0009047761CBBF10001ABF1010BF1DC2146EA
:1034F0005046DDE90F2300F019F806446D1C1BE669
:1035000009280100303132333435363738396162B9
:10351000636465660000000030313233343536377D
:103520003839414243444546000000002DE9F0414E
:10353000044600251E461746880404D405E0394693
:103540002020B0476D1C641EF9D52846BDE8F081E7
:103550002DE9F041044600251E469046C80301D5DA
:10356000302700E02027880404D505E0414638468E
:10357000B0476D1C641EF9D52846BDE8F0814A6845
:10358000002A06D00A68531C0B6010704868401E61
:10359000486070470A68531C0B6010707047000049
:1035A00010B5044A1060516000F00CF8BDE81040FE
:1035B00000F002B804000020014803C8FEF7F0BC88
:1035C00004000020014803C8FEF786BC0400002068
:1035D00002490968096888627047000004000020F9
:1035E00010B5002208210248FDF7ACFA002010BDFA
:1035F0000008014010B5012208210248FDF7A2FA97
:10360000002010BD0008014070B505460C46FFF7CC
:10361000F1FF2046FEF720FA2846FCF7B9FE2846BF
:10362000BDE87040FDF70AB970B504460648FDF7DD
:1036300005F9FF210448FDF763F805460248FCF749
:103640009DFF2060284670BD3800002010B503485B
:10365000FEF73EFABDE81040FFF7AEBF04010020C0
:1036600010B50348FEF7F8F9BDE81040FFF7AABF10
:103670000401002038B5002200923E4A0029137A46
:10368000547A40D0012901D0002038BD092838D211
:10369000DFE800F0370511090D1F312D330043F02D
:1036A000040111724DE043F00201117249E043F050
:1036B0000101117245E0012000906946002000F0F0
:1036C000E9F820B10220FDF721F9012038BD0020E2
:1036D00038BD022000906946002000F0DBF820B1E0
:1036E0000220FDF713F9012038BD002038BD44F059
:1036F0000201517225E0547223E044F0010151723D
:103700001FE0002038BD092824D2DFE800F023059F
:1037100023090D231511170023F00401117210E085
:1037200023F0020111720CE023F00101117208E094
:1037300024F00201517204E0547202E024F001010D
:103740005172092811D2DFE800F0100710070710A6
:103750000C0C0C00002038BD107A40F008000090DE
:1037600003E0507A40F0040000906946002000F029
:1037700091F838BD2C0000202DE9FC410024019473
:103780002E4D28604800A8712A716B710820E871DD
:103790002B4F3420387078703020B8706426009633
:1037A000A9790323264A2868FDF766FB28B1002083
:1037B000BDE8FC810120FDF7A9F82868FDF7D0F9E4
:1037C0002028F7D1641CE4B2032CE8D32C203870F5
:1037D00078702820B8700096A9790323184A2868C1
:1037E000FDF74AFB20B10020E2E70120FDF78EF84B
:1037F0002868FDF7B5F92028F7D19DF8040040F0BE
:10380000020001902979012902D940F008000190B5
:1038100001A9002000F03EF801210846FFF72AFF29
:1038200001210720FFF726FF01210220FFF722FFD9
:1038300001210520FFF71EFF0120B9E72C00002021
:103840000D00002070B505460E46002406E029193B
:10385000012000F01FF828B1641CE4B2B442F6D392
:10386000012070BD002070BD08B5084A12798A4257
:1038700001D8521ED1B2064A515C084440F0800083
:1038800000906946002000F005F808BD2C000020DB
:10389000963D0008F8B51A4C0A78E37902F0F00278
:1038A00043EA000542F0040245EA0206154A167092
:1038B00056700E7806F0F00606431E4396700E789A
:1038C000360146F004063543D5701571097840EA93
:1038D00001110B43537164200090A17906232068E5
:1038E000FDF7CAFA20B10020F8BD0120FDF70EF85F
:1038F0002068FDF735F92028F7D10120F8BD000038
:103900002C0000200D00002010B5012000F044F82C
:103910000120FCF7FBFFBDE810400120FCF7F6BFDB
:1039200010B53220FCF7F2FF302000F035F805200A
:10393000FCF7ECFF302000F02FF80120FCF7E6FF49
:10394000302000F029F80A20FCF7E0FF202000F0EA
:1039500023F80A20FCF7DAFF282000F01DF80120E8
:10396000FCF7D4FF082000F017F80120FCF7CEFF89
:10397000012000F011F80120FCF7C8FF0120FCF73E
:10398000C5FF062000F008F80120FCF7BFFFBDE8E6
:1039900010400C20AFF300801CB500F0F0010001D6
:1039A00041F00C028DF8042041F008018DF805105B
:1039B00040F00C018DF8061040F008008DF807006B
:1039C00064200090042301AA4E210248FDF754FA16
:1039D0001CBD0000680000201CB500F0F0010001D3
:1039E00041F00D028DF8042041F009018DF8051019
:1039F00040F00D018DF8061040F009008DF8070029
:103A000064200090042301AA4E210248FDF734FAF5
:103A10001CBD00006800002010B5044602E0641CD4
:103A2000FFF7DAFF20780028F9D110BD88B0FDF744
:103A3000FDFAFEF7B8FEFEF791FDFEF769FDFEF711
:103A40007FFEFEF7E9FDFEF733FEFEF755FEFEF7BB
:103A5000C5FD00F00BF80448FCF79AFC20216846ED
:103A6000FCF7ABFBFEE700003800002010B512A009
:103A7000FFF758F91E2213A1164800F05BF8312217
:103A800015A1194800F056F8362218A11B4800F07D
:103A900051F84F221AA11C4800F04CF85D221BA1DE
:103AA0001E4800F047F863221DA1214800F042F8AB
:103AB000BDE81040FFF76CB96D61696E54657374B1
:103AC0002E6300007465737447415353656E736FC2
:103AD00072000000293C00087465737454656D70B1
:103AE00053656E736F720000953D000874657374C2
:103AF000414C41524D53656E736F7200C53B0008D7
:103B0000746573744C434400893C00087465737495
:103B10004465627567506F7274000000C93B00080D
:103B2000746573744D61696E4C6F6F7000000000B6
:103B3000E53C000870B50446104B59601A6158699D
:103B4000401C586100219960D960FCF71BFC0B48B0
:103B500028300546FCF743FB10B900F031F8A047C8
:103B60002846FCF73CFB18B900F02BF8FCF70BFCDF
:103B7000FCF707FCFFF7E6F870BD0000D801002055
:103B800008B5002100918DF800004FF6FF73012267
:103B900069460248FEF7AEFA08BD00009401002015
:103BA00010B504462046FCF713FB214682B2BDE85F
:103BB00010404FF6FF730148FEF79CBA94010020B5
:103BC000704770477047000000B587B01C2207A1FE
:103BD0006846FCF7D9FA6846FFF7E2FF002803D0F1
:103BE000612109A0FFF718F907B000BD5B544444F8
:103BF0005D20446562756720506F72742054657350
:103C0000742E2E2E0D0A0000204578707265737395
:103C1000696F6E204576616C756174656420546FC0
:103C20002046414C5345000038B514491448FFF76D
:103C3000EBFC014614240022252310460094FFF7D4
:103C40003BF8FFF7CDFC01460022272310460094E5
:103C5000FFF732F8FFF7CEFC014600222923104679
:103C60000094FFF729F80748FFF7DEFC0146002221
:103C70002D2310460094FFF71FF838BD4C0100209B
:103C8000380000201800002008B5FFF749FE0F4952
:103C90000F48FEF7FFFA014614200022009053233C
:103CA0001046FFF709F81423042227210848FFF7DC
:103CB00063FD072107A0FFF7C5FD01210020FFF7E5
:103CC000D3FD052105A0FFF7BDFDFEE7940100200F
:103CD0006800002048656C6C6F772C004A61766143
:103CE000642C00008AB0202102A8FCF766FA0021AB
:103CF0001C48FFF755FC0146142400226923104696
:103D00000094FEF7D9FF18491848FFF77DFC0146DB
:103D100000226C2310460094FEF7CEFFFFF754FFFD
:103D2000134C40F6B835002620780028FCD0FFF769
:103D3000EBFD6068A84205D9FFF792FC0DA0FFF7E4
:103D40006BFE04E0FFF782FC0EA0FFF765FE0FA1FB
:103D500002A86268FFF7AEF902A8FFF721FF2670FC
:103D6000E2E70000BC0000204C01002038000020E9
:103D700014000020474153204C65616B6167653139
:103D800000000000535953205550000056616C3A12
:103D90002575000070470040145400004F4B002E62
:103DA000200050415353004641494C004E554C4C65
:103DB000004E6F74200020576173200049474E4F1A
:103DC0005245002042797465200020546573747355
:103DD0002000204578706563746564200020746F4E
:103DE0002062652067726561746572207468616E17
:103DF000200020746F206265206C657373207468E6
:103E0000616E20006F7220657175616C20746F2087
:103E10000020746F206265206E6F7420657175617B
:103E20006C20746F200020456C656D656E742000F9
:103E3000204D656D6F7279204D69736D6174636893
:103E40002E002056616C756573204E6F7420576983
:103E50007468696E2044656C7461200020596F7528
:103E60002041736B6564204D6520546F20436F6D56
:103E700070617265204E6F7468696E672C20576898
:103E80006963682057617320506F696E746C657345
:103E9000732E0020457870656374656420706F69C7
:103EA0006E74657220746F206265204E554C4C0014
:103EB0002041637475616C20706F696E7465722047
:103EC000776173204E554C4C00496E76616C696485
:103ED00020466C6F6174205472616974002D2D2D21
:103EE0002D2D2D2D2D2D2D2D2D2D2D2D2D2D2D2D02
:103EF0002D2D2D2D00204661696C75726573200093
:103F00002049676E6F726564200046756E63746940
:103F10006F6E200020417267756D656E7420000021
:103F2000303F0008393F00084B3F00084F3F000872
:103F3000496E66696E697479004E65676174697669
:103F40006520496E66696E697479004E614E004461
:103F5000657465726D696E61746500000000000033
:103F60000000000102030406070809000000000128
:103F700002030400943F0008000000202C00000011
:103F8000FC300008C03F00082C0000207406000030
:103F90000C310008270000000000000000000000B5
:103FA0000000000000000000000000000000000011
:103FB0000100000010000000000000000024F400D8
:0400000508000131BD
:00000001FF
