:020000040800F2
:10000000380600204501000833220008F31F0008CD
:100010003122000815080008692B000800000000C4
:100020000000000000000000000000005D22000849
:100030001D08000800000000352200085F220008AB
:100040005F0100085F0100085F0100085F01000810
:100050005F0100085F0100085F0100085F01000800
:100060005F0100085F0100085F0100085F010008F0
:100070005F0100085F0100085F0100085F010008E0
:100080005F0100085F0100085F0100085F010008D0
:100090005F0100085F0100085F0100085F010008C0
:1000A0005F0100085F0100085F0100085F010008B0
:1000B0005F0100085F0100085F0100085F010008A0
:1000C0005F0100085F0100085F0100085F01000890
:1000D0005F0100085F0100085F0100085F01000880
:1000E0005F0100085F0100085F0100085F01000870
:1000F0005F0100085F0100085F0100085F01000860
:100100005F0100085F0100085F0100085F0100084F
:100110005F0100085F010008D522000805230008E0
:100120005F0100085F0100085F0100085F0100082F
:10013000DFF80CD000F0DCFA004800478D350008ED
:10014000380600200648804706480047FEE7FEE7DD
:10015000FEE7FEE7FEE7FEE7FEE7FEE7FEE7FEE777
:10016000D322000831010008202A04DB203A21FABA
:1001700002F00021704721FA02F3D040C2F12002C0
:10018000914008431946704740EA01039B0703D09A
:1001900009E008C9121F08C0042AFAD203E011F8C6
:1001A000013B00F8013B521EF9D27047D2B201E088
:1001B00000F8012B491EFBD270470022F6E710B56C
:1001C00013460A4604461946FFF7F0FF204610BDC5
:1001D000421C10F8011B0029FBD1801A70472DE941
:1001E000FE4F81EA030404F0004421F00041009432
:1001F0004FF0000B23F0004350EA01045ED052EAB6
:1002000003045BD0C3F30A54C1F30A552C44A4F28F
:10021000F3340194A0FB0254C1F3130141F48011A3
:10022000C3F3130343F4801301FB024400FB034EAA
:10023000840A970A44EA815447EA8357A4FB076873
:1002400002958D0A05FB07854FEA932C04FB0C549D
:100250002705029D4FEA065847EA1637B5EB080511
:100260006EEB070C870E920E47EA811742EA831263
:10027000A7FB0201B6EB0B0164EB00042B0D43EA74
:100280000C335E1844EB1C50DA465146E7FB020182
:10029000C5F313044FEA0B3343EA14534FEA043215
:1002A000019C43EA0603A4F10C040294009CCDE9EE
:1002B00000B400F0F7F803B0BDE8F08F002001466D
:1002C000F9E72DE9F04D81EA030404F0004B21F039
:1002D000004514464FF0000A23F0004150EA0502A1
:1002E00020D054EA01021DD0C5F30A570246C5F3D7
:1002F0001303C1F31300C1F30A5640F4801543F40D
:100300008013A7EB0608101BD64608F2FD3873EBE6
:10031000050002D308F1010801E092185B41B8F131
:10032000000F03DA00200146BDE8F08D00204FF4F5
:100330008011064684460EE0171B73EB050705D3B4
:10034000121B63EB050306434CEA010C49084FEA14
:10035000300092185B4150EA0107EDD152EA0300E8
:1003600012D082EA040083EA0501084305D0101B7D
:10037000AB4106D20122002306E000224FF00043E9
:1003800002E06FF0010253101AEB06004CEB08512B
:1003900010EB0A0041EB0B01BDE8F04D00F073B823
:1003A0000EB540F2334102910021CDE900110A4619
:1003B0000B4600F077F803B000BDA0E8004FF0C096
:1003C00040F804DB01B5AFF30080BDE8024001C195
:1003D0000020704700F12C080C4658F8040DAFF3CC
:1003E000008058F8040D8546200008BF012038E938
:1003F000F00018E9004F704730B50B460146002069
:100400002022012409E021FA02F59D4205D303FAD6
:1004100002F5491B04FA02F52844151EA2F1010257
:10042000F1DC30BD2DE9F05F0546002092469B4689
:1004300088460646814640241BE0284641464746FA
:100440002246FFF791FE53465A46C01A914110D3F7
:1004500011461846224600F05DF92D1A67EB010897
:100460004F4622460120002100F054F917EB000905
:100470004E41201EA4F10104DFDC484631462A46E5
:100480004346BDE8F09F10B5141E73F1000408DA6E
:10049000401C41F1000192185B411A4301D120F048
:1004A000010010BD2DE9F04D92469B4611B1B1FA05
:1004B00081F202E0B0FA80F22032904600F02AF990
:1004C00004460F4640EA0A0041EA0B0153465A46E9
:1004D000084313D0114653EA010019D0C8F1400275
:1004E0005046FFF741FE05460E46504659464246E5
:1004F00000F010F9084305D0012004E020463946F9
:10050000BDE8F08D0020054346EAE0762C433743F2
:100510000A986305E40AA0EB08000022FD0A44EAF9
:1005200047540A3002D500200146E9E701051019B9
:100530006941DDE9084500196941BDE8F04DA2E7D0
:100540002DE9FE4F804681EA0300C00F0C46009063
:1005500021F0004123F00045B8EB0200A94105D28B
:100560004046214690461C460B46024623F000407A
:10057000104347D0270DC7F30A00C3F30A51029076
:10058000401A019040286BDAC3F3130040F4801B3B
:100590000098924620B10023D2EB030A63EB0B0BC9
:1005A00001985946C0F14002504600F0B3F80646A3
:1005B0000D4650465946019A00F0BBF810EB080072
:1005C0006141002487EA115284EAE7731A4340D05C
:1005D000009A62B3019A012A4FEA075215DC001B08
:1005E00061EB02014FF0004202EA0752CDE90042FE
:1005F000001C41F5801132462B46FFF753FF03B034
:10060000BDE8F08F40462146F9E7001B61EB02018F
:10061000001C41F5801300185B412018A2F500175B
:1006200047EB030140EAD570B6196D4111E06D0842
:100630004FEA360645EAC0754FEA0752001B61EBE8
:100640000201001C41F5801149084FEA30000019F1
:10065000514132462B4603B0BDE8F04FFFF713BFC0
:100660000098012240000023D0EB020263EBE0730C
:10067000009821464FEAE074B8EB000061EB0401FA
:10068000E9E783F000435BE781F0004158E7C1F3FD
:100690000A52C1F3130140F2FF3341F480119A4230
:1006A00002DA00200146704740F233439A42A2F238
:1006B000334202DC5242FFF757BD00F02BB8000076
:1006C00030B5041E71F1000404DB4FF000444042D9
:1006D00064EB0101141E73F1000405DB1C464FF0AE
:1006E0000043524263EB0403994208BF904230BD7D
:1006F000064C074D06E0E06840F0010394E807006F
:1007000098471034AC42F6D3FFF716FD7439000851
:1007100094390008202A04DB203A00FA02F1002074
:1007200070479140C2F1200320FA03F3194390402F
:100730007047202A06DBCB17203A41FA02F043EA41
:10074000E07306E041FA02F3D040C2F1200291408A
:1007500008431946704770B5044620688168C9434C
:10076000C9071BD1816821F00101816000F02AFCDA
:1007700005460EE000F026FC401B022809D9A06ABD
:1007800040F01000A062E06A40F00100E062012049
:1007900070BD20688068C043C007EBD0002070BDEA
:1007A000F8B504460026009620688168C943C90749
:1007B0002AD0816841F00101816014481449006821
:1007C000B0FBF1F0009002E00098401E009000980D
:1007D0000028F9D100F0F6FB054610E000F0F2FB2E
:1007E000401B02280BD9A06A40F01000A062E06A0A
:1007F00040F00100E06284F824600120F8BD206828
:100800008068C043C007E9D10020F8BD1C0000206B
:1008100040420F00FEE7704770477047704772B65E
:10082000FEE70000F8B504460026009694F8240080
:10083000012809D0012084F824002046FFF78BFF0F
:100840000746380002D058E00220F8BDA06A20F424
:10085000885040F00200A062022000F053FC2949B9
:100860000968B1FBF0F04000009002E00098401EE3
:10087000009000980028F9D12046FFF791FF2068EA
:10088000816841F00801816000F09CFB05460EE0A4
:1008900000F098FB401B0A2809D9A06A20F002004A
:1008A00040F01000A06284F824600120F8BD2068A8
:1008B00080680007ECD42068816841F00401816001
:1008C00000F080FB05460EE000F07CFB401B0A2890
:1008D00009D9A06A20F0020040F01000A06284F85C
:1008E00024600120F8BD206880684007ECD4A06A2D
:1008F00020F0020040F00100A06284F82460384635
:10090000F8BD00001C000020F8B50023002500956C
:1009100090F82420012A12D0012280F824204A686D
:100920001F26072A0DD20468676B521E02EB820253
:100930009640B7430E689640374367631AE002203B
:10094000F8BD0D2A0BD20468276BD21F02EB82027E
:100950009640B7430E689640374327630AE0046821
:10096000E76A0D3A02EB82029640B7430E68964062
:100970003743E7620A6807260A2A0BD30468E76848
:100980000A3A02EB42029640B7438E6896403743DC
:10099000E76009E00468276902EB42029640B7432A
:1009A0008E689640374327610A68102A01D0112AC1
:1009B00023D1144C0268A2421AD1946824021CD498
:1009C000946844F4000494600968102915D10E4914
:1009D0000E4A0968B1FBF2F101EB81014900009177
:1009E00002E00099491E009100990029F9D104E024
:1009F000816A41F020018162012380F82450184669
:100A0000F8BD0000002401401C00002040420F00FF
:100A10000068C06C704700002DE9F04104460025D5
:100A2000002C03D0A06A002618B108E00120BDE820
:100A3000F081E66284F82460204600F07FF82046CA
:100A4000FFF789FEA16AC90600D428B1A06A40F068
:100A50001000A0620120EAE7A16A21F4885141F068
:100A60000201A162324923688B4206D1E169B1F5E6
:100A7000402F03D14FF4002100E0E169277B41EAD8
:100A8000470261680A43A1684FF4807C614508D041
:100A9000012906D0002194F81480B8F1010F02D08A
:100AA0000AE06146F7E7C7B1A76A47F02007A762E7
:100AB000E76A47F00107E7625F6827F469470F4379
:100AC0005F6021688B681B4F3B4013438B60A168BC
:100AD000614509D0012907D009E0A7697F1E41EAD5
:100AE000473141F40061E7E7218A491E0D0521687D
:100AF000CB6A23F470032B43CB62216889680E4BC9
:100B00001940914207D1E662A16A21F0020141F049
:100B10000101A1628BE7A06A20F0020040F0100002
:100B2000A062E06A40F00100E06201207FE700007F
:100B3000003C0140FDF7E1FFFE0E1FFF00B585B050
:100B40000021019102910391049100680E498842AD
:100B500017D10E48816941F400718161816901F406
:100B600000710091816941F004018161806900F0A8
:100B70000400009003200190029001A9044800F0B5
:100B80000FF905B000BD0000002401400010024034
:100B9000000801402DE9F84304460D460027009760
:100BA00000F010FA064620688168C90508D5A06AD9
:100BB00040F02000A06284F824700120BDE8F88392
:100BC0004168C90503D4C06A10F4700F2DD002200B
:100BD00000F098FA3B490968B1FBF0F82068016918
:100BE000394A11424FEA62024FEAA21322D1C16888
:100BF0004FEA621C11EA0C0F1CD10169114228D185
:100C0000C068184225D1142026E0681C0DD025B1FB
:100C100000F0D8F9801BA84207D9A06A40F0040070
:100C2000A06284F824700320C8E720680068800769
:100C3000EBD52AE00169114202D1C168194206D000
:100C4000026922490A4206D1C068084203D15420F1
:100C500002E0292000E0FC2008FB00F812E0681CFC
:100C60000DD025B100F0AEF9801BA84207D9A06ACB
:100C700040F00400A06284F8247003209EE70098EE
:100C8000401C009000984045E9D321686FF01200A5
:100C90000860A06A40F40070A06220688068C0F319
:100CA000424007280CD1207B50B9A06A20F4807004
:100CB000A062A06AC00403D4A06A40F00100A06250
:100CC00000207BE71C000020244992244992240044
:100CD00070B5044694F8240001280CD0012084F853
:100CE00024002046FFF75CFD0146002229B184F86C
:100CF0002420084670BD022070BDA06A40F2012386
:100D0000984340F48070A062234D2068234BA84292
:100D100018D11E6816F4702F14D0A66A46F48016F7
:100D2000A6621E68760505D5A66A26F4005646F426
:100D30008056A662A66AF60412D5E66A26F0060672
:100D4000E6620EE0A66A26F48016A662466876057C
:100D5000F0D5A66A26F4005646F48056A662E9E766
:100D6000E26284F824206FF0020202602068826848
:100D7000C2F34242072A05D1A84208D11A6812F4E8
:100D8000702F04D0826842F480128260B1E78268DA
:100D900042F4A0028260ACE7002801400424014034
:100DA0002DE9F84F00240023DFF8E0914FF00F0801
:100DB00009F1040A0AF1040B0BF1040EDFE001272C
:100DC000A7403A40BA4275D1DFF8C4C14D68A5EBDF
:100DD0000C0665452BD00DDC032D34D005DC35B376
:100DE000012D19D0022D2FD11BE0112D16D0122D5F
:100DF0002AD119E0B6F5881F19D006DCB6F5803F78
:100E000015D0B6F5801F1FD111E0B6F5001F0ED02A
:100E1000B6F5041F18D10AE0CB6815E0CB681B1D9E
:100E200012E0CB6808330FE0CB680C330CE08B6822
:100E300023B1012B04D00823476105E0042303E01C
:100E40000823076100E00023FF2A01D8054601E0DE
:100E500000F1040502D84FEA840603E0A4F1080675
:100E60004FEA86062F6808FA06FC27EA0C0703FA01
:100E700006F647EA06072F604D68ED007ED5454D22
:100E8000AE6946F00106AE61AD6905F00105009559
:100E9000414D24F003067719BE68A5072D0F08FA07
:100EA00005FC26EA0C06DFF8F4C0604503D14FF0DC
:100EB000000C25E062E0DFF8E8C0604502D14FF0A9
:100EC000010C1DE0DFF8DCC0604502D14FF0020CE0
:100ED00016E0DFF8D4C0604502D14FF0030C0FE0FC
:100EE000DFF8C8C0604502D14FF0040C08E0DFF81D
:100EF000C0C0604502D14FF0050C01E04FF0060C78
:100F00000CFA05FC4CEA060CC7F808C04D68ED0366
:100F100005D5D9F800501543C9F8005004E0D9F8B8
:100F200000509543C9F800504D68AD0305D5DAF877
:100F300000501543CAF8005004E0DAF80050954319
:100F4000CAF800504D68ED0205D5DBF80050154396
:100F5000CBF8005004E0DBF800509543CBF800508C
:100F60004D68AD0205D5DEF800501543CEF80050AF
:100F700004E0DEF800509543CEF80050641C0A6887
:100F800032FA04F57FF41BAFBDE8F88F000401408E
:100F90000000111000100240000001400008014054
:100FA000000C0140001001400014014000180140F5
:100FB000001C0140002A01D0016170470904016151
:100FC0007047000001488068704700001000002052
:100FD0000248816802781144816070471000002047
:100FE00010B50748016841F010010160032000F0CE
:100FF00077F8002000F006F800F026F8002010BD79
:101000000020024070B504460D4D4FF47A712878E7
:10101000B1FBF0F00B490968B1FBF0F000F03CFCCB
:1010200008B1012070BD102C07D200222146501EAD
:1010300000F036F86C60002070BD012070BD00002B
:10104000100000201C00002008B50C48816941F008
:1010500001018161816901F001010091C16941F0E3
:101060008051C161C06900F0805000900449486817
:1010700020F0E06040F00070486008BD00100240C1
:1010800000000140002809DB00F01F02012191400F
:101090004009800000F1E020C0F800117047000016
:1010A000F0B40D460D4B1B68C3F30223C3F10704D4
:1010B000042C00D90424191D072901D2002300E0C3
:1010C000DB1E012606FA04F1491E294099409E4084
:1010D000761E16403143F0BC01F05CBD0CED00E023
:1010E00000F00701054A10684FF6FF03184040EA78
:1010F0000120034908431060704700000CED00E038
:101100000000FA0510B586B0014632A090E81C0038
:10111000C068CDE903340292059032A000680190C6
:101120000020314C042931D00EDC012938D00229AD
:1011300008D100F0A5F96168C1F38131491C49006B
:10114000B0FBF1F006B010BD082924D01029F9D168
:1011500061682268D201F5D502A8C1F38342805CA0
:10116000C90309D5616801AAC1F34041515C1F4A16
:10117000B2FBF1F1484301E01D494843616849026F
:10118000E0D440000321B0FBF1F0DBE706B0BDE89E
:10119000104000F085B906B0BDE8104000F080B9FD
:1011A000216AC1F30122012A03D1890701D5D003A5
:1011B000C8E7022A05D1616A890702D549F640408D
:1011C000C0E7032ABED121688903BBD54FF2244072
:1011D000B8E7000002030405060708090A0B0C0D16
:1011E0000E0F1010010200000010024000127A00E1
:1011F00000093D002DE9F8430446DFF8F880207827
:10120000C0075FD00027D8F81C00C0000BD4D8F866
:101210001C0040F08050C8F81C00D8F81C0000F0FA
:10122000805000900127344D2868C00512D42868EA
:1012300040F480702860FFF7C5FE064607E0FFF720
:10124000C1FE801B642802D90320BDE8F88328680A
:10125000C005F4D5D8F8200000F4407010B3A18880
:1012600001F4407181421DD0D8F8200020F4407074
:10127000224901220A6000220A60C8F82000C00743
:1012800010D0FFF79FFE054641F2883606E0FFF7D3
:1012900099FE401BB04201D90320D6E7D8F82000C0
:1012A0008007F4D5D8F82000616820F44070084326
:1012B000C8F82000012F05D1D8F81C0020F080507C
:1012C000C8F81C002078800707D5D8F80400A1686A
:1012D00020F440400843C8F804002078C00607D531
:1012E000D8F80400616920F480000843C8F80400BD
:1012F0000020AAE700100240007000404004424273
:101300002DE9F04704460D46002C17D0DFF8308158
:10131000D8F8000000F00700A84211D2D8F8000069
:1013200020F007002843C8F80000D8F8000000F0BB
:101330000700A84204D00120BDE8F0870120FBE7A8
:101340002068404E810712D5400703D5706840F4ED
:10135000E06070602078000703D5706840F460504A
:1013600070607068A16820F0F00008437060207819
:10137000C0072CD06068012806D0022809D0316847
:1013800089070BD40120D7E73168890306D40120EF
:10139000D2E73168890101D40120CDE7716821F0DD
:1013A000030101437160FFF70DFE074641F28839E2
:1013B00006E0FFF707FEC01B484501D90320BBE745
:1013C0007068616800F00C00B0EB810FF1D1D8F8C3
:1013D000000000F00700A8420ED9D8F8000020F065
:1013E00007002843C8F80000D8F8000000F0070004
:1013F000A84201D001209FE72078400705D57068FA
:10140000E16820F4E060084370602078000706D5AA
:101410007068216920F4605040EAC100706000F0FB
:101420003FF87168084AC1F30311515CC84007498D
:10143000086007480068FFF7E5FD00207CE7000032
:1014400000200240001002405B3900081C00002010
:101450001400002001480068704700001C000020B4
:1014600000B5FFF7F7FF04494968044AC1F30221B8
:10147000515CC84000BD0000001002406B390008FC
:1014800000B5FFF7E7FF04494968044AC1F3C221E8
:10149000515CC84000BD0000001002406B390008DC
:1014A00085B014A090E80E00C068CDE90223019138
:1014B000049014A000680090134B5968134801F081
:1014C0000C02042A10D0082A0ED101A8C1F38342CD
:1014D000805CC9030AD55968C1F340411DF8011069
:1014E0000A4A5043B0FBF1F005B070470849484341
:1014F000FAE7000002030405060708090A0B0C0DB1
:101500000E0F1010010200000010024000127A00BD
:1015100000093D002DE9F84F0446002C0ED020783C
:10152000D94DC0075ED06868C0F3810001280BD098
:101530006868C0F38100022803D00CE00120BDE8F8
:10154000F88F6868C00306D5286880034AD56068AC
:10155000A8BB0120F3E76068B0F5803F11D0A8B1C7
:10156000B0F5A02F1BD0286820F4803028602868B0
:1015700020F480202860606830B3FFF723FD064622
:101580001EE0286840F480302860F4E7286820F4E2
:1015900080302860286820F480202860EBE72868E5
:1015A00040F480202860286840F480302860E2E71A
:1015B000FFF708FD801B642802D90320BFE711E074
:1015C00028688003F4D50DE0FFF7FCFC064606E032
:1015D000FFF7F8FC801B642801D90320AFE72868D7
:1015E0008003F5D42078DFF8A48280074FF0010A49
:1015F0004FF0000945D5686810F00C0F07D06868F7
:10160000C0F38100022812D16868C0030FD4286893
:10161000800704D52069012801D001208FE72868C0
:10162000616920F0F80040EAC100286029E02069E3
:10163000B8B1C8F800A0FFF7C5FC064606E0FFF702
:10164000C1FC801B022801D9032078E728688007A5
:10165000F5D52868616920F0F80040EAC1002860EB
:101660000FE0C8F80090FFF7ADFC064606E0FFF774
:10167000A9FC801B022801D9032060E728688007A5
:10168000F5D42078000726D58148A16999B1C0F822
:1016900000A0FFF797FC064606E0FFF793FC801BCF
:1016A000022801D903204AE7686A8007F5D501209E
:1016B00000F0C2FD0FE0C0F80090FFF783FC064683
:1016C00006E0FFF77FFC801B022801D9032036E7E4
:1016D000686A8007F5D42078400773D50026E8694A
:1016E000C00008D4E86940F08050E861E86900F083
:1016F000805000900126DFF89CB1DBF80000C005A7
:1017000014D4DBF8000040F48070CBF80000FFF741
:1017100059FC074606E0FFF755FCC01B642801D9B9
:1017200003200CE7DBF80000C005F4D5E0680128D1
:1017300012D0B0B105281DD0286A20F0010028621F
:10174000286A20F004002862E06841F2883B28B350
:10175000FFF738FC07461DE0286A40F001002862C8
:10176000F2E7286A20F001002862286A20F00400CD
:101770002862E9E7286A40F004002862286A40F0FD
:1017800001002862E0E7FFF71DFCC01B584501D9A6
:101790000320D4E6286A8007F5D50DE0FFF712FC98
:1017A000074606E0FFF70EFCC01B584501D9032091
:1017B000C5E6286A8007F5D4012E03D1E86920F038
:1017C0008050E861E069A0B36968C1F38101022932
:1017D00046D0022805D0C8F86090FFF7F3FB044616
:1017E0003AE0C8F86090FFF7EDFB064606E0FFF729
:1017F000E9FB801B022801D90320A0E628688001AC
:10180000F5D4206AB0F5803F05D16868A16820F45E
:10181000003008436860D4E908010843696821F48E
:10182000741108436860C8F860A0FFF7CBFB04465A
:1018300007E026E0FFF7C6FB001B022801D90320C2
:101840007DE628688001F5D51BE0FFF7BBFB001B98
:10185000022801D9032072E628688001F5D410E03F
:1018600001280CD06868226A00F48031914204D1CA
:10187000616A00F47010884203D001205FE6012005
:101880005DE600205BE600000010024000004242DE
:10189000800442420070004010B5401EB0F1807FCD
:1018A00001D3012010BD4FF0E02460610F216017CB
:1018B00001F070F90020A06107202061002010BD18
:1018C0007047704770B590F83C20012A2BD0012654
:1018D00080F83C60022280F83D20026853689568D9
:1018E00023F070040B6823435360104B02689A4244
:1018F0000ED00F4B9A420BD0B2F1804F08D00D4B57
:101900009A4205D00C4B9A4202D00C4B9A4204D119
:1019100025F080034968194391603C3046700021EE
:101920000170002070BD022070BD0000002C01403D
:10193000003401400004004000080040000C00405A
:1019400010B50446002C03D094F83D0010B107E018
:10195000012010BD002084F83C00204600F016F85D
:10196000022084F83D00211D206800F0E9FC0120E0
:101970003D3460726070A070E07020716071A07181
:10198000E07120722070002010BD000008B50068D2
:101990001B49B0F1804F14D01A4A90421AD1C8693D
:1019A00040F01000C861C86900F0100000900022EB
:1019B00011463620FFF774FBBDE808403620FFF7DC
:1019C00061BBC86940F00100C861C86900F001004E
:1019D000009008BD0C4A9042FBD1C86940F020003D
:1019E000C861C86900F0200000900022114637202D
:1019F000FFF756FBBDE808403720FFF743BB000068
:101A000000100240001000400014004090F83D100B
:101A1000012901D001207047022180F83D100168A2
:101A2000CA6842F00102CA600068114988420ED0BB
:101A3000104988420BD0B0F1804F08D00E4988423F
:101A400005D00E49884202D00D49884209D18168EB
:101A500001F00701062908D0016841F00101016089
:101A600003E0016841F001010160002070470000BF
:101A7000002C0140003401400004004000080040F8
:101A8000000C004070B5044694F83C00012817D0C3
:101A9000012584F83C50022084F83D0020688268CB
:101AA00022F0770222F47F4282600868502831D009
:101AB0000DDC20284DD005DCB0B310284ED148E015
:101AC000022070BD302844D0402847D137E060283C
:101AD0002BD0702806D0B0F5805F3FD0B0F5005F06
:101AE0003CD10BE0CB68D1E90121206800F070FC0B
:101AF0002068816841F0770181602FE0CB68D1E9EF
:101B00000121206800F064FC2068816841F4804174
:101B1000816023E0CA684968206800F03BFD5021DD
:101B2000206800F05FFC19E013E0CA68496820688B
:101B300000F041FD6021206800F054FC0EE0CA680E
:101B40004968206800F026FD4021206800F04AFC2A
:101B500004E022680146104600F044FC3C34657005
:101B60000020207070BD704770B504462068016980
:101B70004FF00005C943890716D4C168C9438907D6
:101B800012D4E91E01610120207720688069800756
:101B900003D02046FFF7E7FF05E0204600F0CCF831
:101BA000204600F059F9257720680169C9434907A3
:101BB00018D4C168C943490714D46FF00401016106
:101BC000022020772068806910F4407F03D02046EF
:101BD000FFF7C9FF05E0204600F0AEF8204600F010
:101BE0003BF9257720680169C943090717D4C16803
:101BF000C943090713D46FF008010161042020775D
:101C00002068C069800703D02046FFF7ACFF05E0DD
:101C1000204600F091F8204600F01EF92577206854
:101C20000169C943C90618D4C168C943C90614D497
:101C30006FF010010161082020772068C06910F45E
:101C4000407F03D02046FFF78EFF05E0204600F0DE
:101C500073F8204600F000F9257720680169C94330
:101C6000C90708D1C168C943C90704D1891E0161E8
:101C7000204600F0F2F820680169C943090609D43A
:101C8000C168C943090605D46FF08001016120468F
:101C9000FFF716FE20680169C943490609D4C168E7
:101CA000C943490605D46FF040010161204600F0A8
:101CB000D5F820680169C94389060BD4C168C943B6
:101CC000890607D46FF0200101612046BDE870400D
:101CD000FFF7F7BD70BD000000B585B00021019190
:101CE0000291039104910068B0F1804F1BD10F481D
:101CF000816941F004018161806900F00400009075
:101D00004FF40040019002200290049001A908487D
:101D1000FFF746F80749486820F4407040F0E0605B
:101D200040F48070486005B000BD00000010024023
:101D30000008014000000140704770B504460D46A0
:101D400094F83C0001280AD0012084F83C0042B1FC
:101D5000042A1AD0082A2DD00C2A53D13EE00220A2
:101D600070BD2946206800F045FB2068816941F07C
:101D7000080181612068816921F004018161206886
:101D800081692A69114381613CE02946206800F09D
:101D900065FB2068816941F4006181612068816987
:101DA00021F480618161206881692A6941EA022108
:101DB000816127E02946206800F08AFB2068C1691C
:101DC00041F00801C1612068C16921F00401C161CD
:101DD0002068C1692A691143C16113E0294620685E
:101DE00000F0AEFB2068C16941F40061C161206868
:101DF000C16921F48061C1612068C1692A6941EA31
:101E00000221C161002084F83C0070BD10B5044679
:101E1000002C03D094F83D0010B107E0012010BD64
:101E2000002084F83C00204600F015F8022084F8D9
:101E30003D00211D206800F083FA01203D346072CE
:101E40006070A070E07020716071A071E07120720C
:101E50002070002010BD704770477047704770B504
:101E60000446002C04D094F83900002510B106E097
:101E7000012070BD84F83850204600F023F824205B
:101E800084F839002068C16821F40051C1602046FF
:101E900000F0A4FB2068016921F4904101612068F1
:101EA000416921F02A0141612068C16841F4005173
:101EB000C160E563202084F8390084F83A000020EE
:101EC00070BD000030B585B00024019402940394E5
:101ED000049400681449884224D11448816941F46B
:101EE00080418161816901F480410091816941F003
:101EF00004018161806900F0040000904FF40070DB
:101F000001900220029003200490094D01A9284667
:101F1000FEF746FF291501910294039401A9284672
:101F2000FEF73EFF05B030BD003801400010024012
:101F3000000801402DE9F84304460E4615461F46A9
:101F400094F83900202802D00220BDE8F883C6B1F9
:101F5000BDB194F83800012815D0012084F838006C
:101F60004FF00009C4F83C90212084F83900FFF7B5
:101F700029F88046A584E584A068B0F5805F04D088
:101F800005E00120E1E70220DFE7206920B13546C6
:101F9000002684F8389013E00025FAE74346002233
:101FA00080212046009700F075FB08B10320CCE7A4
:101FB0009DB1216815F8010B4860E08C401EE0845B
:101FC000E08C0028EAD143460022402120460097B9
:101FD00000F060FB40B10320B7E736F8020B216840
:101FE000C0F308004860E8E7202084F839000020AA
:101FF000ABE7FEE707490968C9070AD005498039F8
:102000000968C90705D04FF060410A68002AFCD072
:1020100008707047800E00E03EB5002400940194E3
:1020200002940F480D4901608460047304754FF4F5
:102030006021C161446001250561FEF7EDFC08B136
:10204000FEF7EDFB00940195029469460448FEF703
:102050005BFC002801D0FEF7E2FB3EBD00240140FE
:102060002800002070B586B00024029403940494E4
:1020700005941648816941F010018161816901F080
:1020800010010191816941F004018161816901F0D0
:1020900004010191816941F480718161806900F4DA
:1020A000807001900A4E4FF4804500222946304648
:1020B000FEF780FF0295012103910494022105910E
:1020C00002A93046FEF76CFE06B070BD001002405B
:1020D0000020014030B58DB0002409940A940B947F
:1020E0000C94079408941C216846FEF766F81E4875
:1020F0004FF0804101600925456084606321C16023
:1021000004618461FFF71CFC08B1FEF788FB4FF403
:102110008050099009A91448FFF7B4FC08B1FEF7F4
:102120007EFB1148FFF772FE08B1FEF778FB202016
:102130000790089407A90C48FFF7C4FB08B1FEF705
:102140006EFB602000900195029404940022694681
:102150000548FFF7F2FD08B1FEF761FB0248FFF703
:10216000BBFD0DB030BD0000580000201CB50024A0
:10217000009401940E480D49016040F2E73141603E
:10218000846040F65F11C1608461FFF7D9FB08B13C
:10219000FEF745FB20200090019469460448FFF7B4
:1021A00091FB002801D0FEF73AFB1CBD0010004057
:1021B000A00000201CB50024009401940E480D4995
:1021C000016042F20F714160846040F65F11C160AE
:1021D0008461FFF7B5FB08B1FEF721FB20200090DA
:1021E000019469460448FFF76DFB002801D0FEF713
:1021F00016FB1CBD00140040E800002010B50B4881
:10220000094901604FF41651416000218160C160AD
:1022100001610C2242618161C161FFF720FE00284B
:1022200001D0FEF7FCFA10BD00380140300100205B
:10223000FEE7FEE77047000008B507494FF4FA5281
:102240000968B1FBF2F14143009100BF0098411EC3
:102250000091FAD208BD00001C0000207047FEF774
:10226000B7BE30B595B028210BA8FDF7A6FF142105
:1022700006A8FDF7A2FF18216846FDF79EFF012082
:102280000B9001040C9100240D940F9002251295DF
:102290001391800414900BA8FFF73CF908B1FEF7E6
:1022A000BEFA0F2006900795089409940A9400211D
:1022B00006A8FFF725F808B1FEF7B1FA00950294D9
:1022C0006846FEF797FF002801D0FEF7A8FA15B080
:1022D00030BD704710B5094C2068B0F5C87F01D3F8
:1022E00027202060206801F0D3F82068401D20607E
:1022F000BDE810400248FFF737BC00000000002096
:10230000A000002010B50C4C2078401CC0B22070FA
:102310003C2802D0962803D008E001F0D3F805E06D
:1023200001F0DCF80020207001F0F2F8BDE8104068
:102330000248FFF719BC00000C000020E800002054
:102340002DE9F04102681D4D1D4E1E4FDFF878C08B
:102350001E4B4FF08048A84209D0984207D0404514
:1023600005D0B04203D0B84201D0604503D122F07D
:1023700070044A682243A84209D0984207D04045D9
:1023800005D0B04203D0B84201D0604503D122F459
:102390004074CA6822434C6922F0800222430260E2
:1023A0008A68C2620A688262A84201D0984201D15A
:1023B0000969016301214161BDE8F081002C014000
:1023C0000004004000080040000C004000340140C0
:1023D00010B5846824F47F4442EA03220A4322436E
:1023E000826010BD826822F070020A4342F0070149
:1023F00081607047F0B5026A22F001020262026A4F
:102400004368846924F0700424F003050C682C43AD
:1024100022F002058A682A430E4E0F4FB04201D0C7
:10242000B84205D122F00805CA682A4322F0040206
:10243000B04201D0B84207D123F4807323F4007373
:102440004D691D438B692B43436084614968416337
:102450000262F0BD002C014000340140F0B5026A78
:1024600022F010020262036A4268846924F4E044A4
:1024700024F440740D6844EA052423F020038D6899
:1024800043EA0513104D114EA84201D0B04206D1C7
:1024900023F08003CF6843EA071323F04003A842E8
:1024A00001D0B04209D122F4806222F400624D6969
:1024B00042EA85028D6942EA850242608461496888
:1024C00081630362F0BD0000002C01400034014034
:1024D000F0B5026A22F480720262026A4368C4693B
:1024E00024F0700424F003050C682C4322F40072DD
:1024F0008D6842EA0522104D104EA84201D0B0422C
:1025000006D122F40062CF6842EA072222F48062F8
:10251000A84201D0B04209D123F4805323F40053E0
:102520004D6943EA05138D6943EA05134360C461AD
:102530004968C1630262F0BD002C014000340140D3
:1025400030B5026A22F480520262046A4268C369AA
:1025500023F4E04323F440730D6843EA052324F495
:1025600000548D6844EA0534084DA84202D0084D55
:10257000A84204D122F480424D6942EA85124260A9
:10258000C36149680164046230BD0000002C014051
:102590000034014010B5036A046A24F001040462A7
:1025A000846924F0F00444EA021423F00A020A4386
:1025B0008461026210BD10B5036A23F01003036248
:1025C0008469036A24F4704444EA023223F0A003CD
:1025D00043EA01118261016210BD000070B504463A
:1025E00020680169E26821F4405111430161A1684A
:1025F00020690143606901432068C26841F20C63AD
:102600009A430A43C26020684169A26921F440717B
:10261000114341611E492068884202D1FEF730FF14
:1026200001E0FEF71DFF00EBC00101EB0010616847
:1026300064228900B0FBF1F3B3FBF2F36FF01806EC
:102640007343B0FBF1F5B0FBF1F605EB83053223E4
:1026500003EB0515B5FBF2F5B6FBF2F605F0F00558
:1026600005EB0615B0FBF1F6B0FBF1F0B0FBF2F0B4
:102670006FF01801484306EB800003EB0010B0FB3D
:10268000F2F0216800F00F002844886070BD00005F
:10269000003801402DE9F04104460E4617469846A1
:1026A000069D1DE0681C1BD02DB1FEF78BFCA0EB36
:1026B0000800A84214D92068C16821F4D071C16013
:1026C0002068416921F001014161202084F839002E
:1026D00084F83A00002084F838000320BDE8F08137
:1026E0002068006836EA000004D00020B842D9D043
:1026F0000020F3E70120F9E770B50546002D1CD056
:102700000E4800F011F90E4CA06888B10D4800F099
:102710000BF9A06800F008F9E06830B109480A3008
:1027200000F002F9E06800F0FFF8044800F0FCF85F
:102730002846BDE8704000F0F7B870BD9F3700082C
:10274000700100200A3900082DE9F0470646DDF83F
:1027500020900D469046154F07F12804386A00284E
:1027600001D1786A18B101212046FDF733FEAE424F
:102770001AD0184600F0E2F90D4800F0D5F84946A5
:10278000304600F025F90A481C3800F0CDF84946DB
:10279000284600F01DF94046FFF7AEFF01203862E1
:1027A00001212046FDF716FEBDE8F08770010020EC
:1027B000D237000806490860002048600861486177
:1027C0008861C861086248628860C860704700001C
:1027D0007001002010B50F4C606A002803D0E0693A
:1027E000401CE06104E0206A58B1A069401CA0616F
:1027F000002020626062BDE8104007490A2000F016
:102800002DBF2169206800F07BF9044800F08CF8A6
:10281000EEE700007001002020000020A237000831
:1028200010B51A490A2000F019FF194800F07CF889
:1028300016490A2000F012FF164C606900F0B6F845
:10284000154800F071F8A06900F0B0F81048183091
:1028500000F06AF8E06900F0A9F80D48233000F0B4
:1028600063F80A490A2000F0F9FEA06948B10A4855
:10287000233800F059F805490A2000F0EFFEA0695E
:1028800010BD05482E3800F04FF8F4E72000002076
:10289000DD38000870010020CA37000805461E4CCC
:1028A00004F12806206A002801D1606A18B10121CC
:1028B0003046FDF78FFD206800F022F9174800F040
:1028C00033F815B316493A2000F0C8FEA06890B15D
:1028D000144800F029F8A06800F026F8E06830B14C
:1028E00010480A3000F020F8E06800F01DF80B48AE
:1028F000083800F019F82878202803D0084920204B
:1029000000F0ACFE284600F00FF801202062012103
:102910003046FDF75FFD000070010020A73700087A
:10292000200000200A39000810B50446002C04D10C
:1029300010BD204600F006F8641C20780028F8D16D
:1029400010BD000010B504462078A0F120015E29DA
:1029500004D8BDE81040144900F080BE0D280FD007
:102960000A2817D010495C2000F078FE0E49782024
:1029700000F074FE2078BDE81040022100F082B81B
:1029800009495C2000F06AFEBDE81040064972204B
:1029900000F064BE04495C2000F060FEBDE8104019
:1029A00001496E2000F05ABE2000002010B50446F8
:1029B000002805DA05492D2000F050FEE443641C90
:1029C0002046BDE8104000F07DB800002000002047
:1029D00070B505460C46E0063BD5912C04D0284640
:1029E000BDE87040FFF7E2BF2549272000F036FE22
:1029F000A5F120005E2804D82149284600F02EFECB
:102A00000FE00D2D13D00A2D1AD01D495C2000F0C7
:102A100025FE1B49782000F021FE0221284600F007
:102A200031F8BDE870401649272000F017BE144960
:102A30005C2000F013FE1249722000F00FFEF0E758
:102A40000F495C2000F00AFE0D496E2000F006FEE2
:102A5000E7E7A00604D52846BDE8704000F032B88C
:102A60000749302000F0FAFD0549782000F0F6FD16
:102A70002007C10E2846BDE8704000F003B80000F2
:102A80002000002070B505460C46082C15D90824F6
:102A900013E0641EE4B2A00025FA00F000F00F007D
:102AA000092805DC3030C0B2054900F0D7FD04E04C
:102AB0003730C0B2024900F0D1FD002CE9D170BD21
:102AC0002000002070B50646012402E004EB8400DB
:102AD0004400B6FBF4F00928F8D80A25B6FBF4F157
:102AE000B1FBF5F005FB10103030044900F0B6FDE5
:102AF000B4FBF5F4002CF1D170BD000020000020E3
:102B000010B50C46FFF710FF0A493A2000F0A6FD69
:102B10002046FFF74BFF07493A2000F09FFD06488B
:102B20004068FFF701FFBDE8104002493A2000F07D
:102B300095BD0000200000207001002010B5014666
:102B400006480068FFF7DCFF0548FFF7EDFEBDE82B
:102B5000104004493A2000F081BD000070010020BF
:102B6000A737000820000020FEE700000FB4084B44
:102B700010B504A902AA039800F0EEF8044602A9D1
:102B8000002000F080FC204610BC5DF814FB000023
:102B9000873400080907090E002804DB00F1E02053
:102BA00080F80014704700F00F0000F1E02080F87A
:102BB000141D704702E008C8121F08C1002AFAD18C
:102BC00070477047002001E001C1121F002AFBD1AD
:102BD000704700002DE9FF5F82B00021DDE904307D
:102BE000020DDDF840B0034318D044F61050A2F2B5
:102BF000FF3242431514119801281FD0A5EB0B009A
:102C0000401C5FEA000A4FF000064E4FDFF8389193
:102C1000B046504615D5CAF1000413E011980124BE
:102C20004AA3012801D16FEA0B010298119AC0E969
:102C30000031C0E9024206B0BDE8F09FCBF10000D0
:102C4000DFE704460021404A491842EB0450CDE931
:102C5000001012E0E00707D032463B4640464946A6
:102C6000FDF7BDFA8046894632463B461046194676
:102C7000FDF7B5FA06460F466410002CEAD1DDE9EF
:102C80000401DDE90023BAF1000F06DAFDF7A7FA27
:102C900042464B46FDF7A3FA05E0FDF712FB42461C
:102CA0004B46FDF70EFB04460E460022284BFDF76F
:102CB00007FD03D84FF0FF30014607E00022254B07
:102CC00020463146FDF73CFCFDF7E1FC102409E00D
:102CD000002C0ADB0A220023FDF7A4FB039B303201
:102CE0001A55641E50EA0102F2D1641C039AC4F121
:102CF00011031444119A012A03D0012208430DD173
:102D00000AE0084304D000204FF0110B119072E745
:102D1000A3EB0B056D1E0DE05B4504DD4FF00002DB
:102D200005F1010504E003DA4FF00002A5F1010509
:102D3000002AECD002981199C0E90231C0E900459F
:102D400079E70000000014400000F03F3000000070
:102D50000000F0430000E03F2DE9FF4F95B09B4697
:102D60008946064600250FE2252877D1002427460C
:102D7000F84A0121059400E0044316F8013F203B86
:102D800001FA03F01042F7D130782A2811D06FF001
:102D90002F033078A0F13002092A16D8059A44F0A2
:102DA000020402EB820203EB42021044761C0590FF
:102DB000EFE759F8042B0592002A03DA504244F455
:102DC0000054059044F00204761C30782E2816D169
:102DD00016F8010F44F004042A280DD06FF02F02DA
:102DE0003078A0F13003092B09D807EB870302EBF9
:102DF0004303C718761CF3E759F8047B761C307838
:102E00006C280FD006DC4C2817D068280DD06A2813
:102E100014D104E0742810D07A280FD10DE044F4C6
:102E200000140AE044F4801401E044F44014727881
:102E3000824202D104F58014761C761C3078662814
:102E40000BD013DC582877D009DC002875D0452832
:102E5000F6D04628F4D047281AD19DE118E063281F
:102E600035D0642879D0652812D195E1702873D0C7
:102E700008DC6728F1D069286FD06E280DD06F2844
:102E800006D1B5E073282CD0752875D0782874D079
:102E90005A46179990476D1C75E1C4F302500228F9
:102EA00009D003280DD0D9F8001004280DD00D60EA
:102EB00009F1040967E1D9F80010EA17C1E90052E5
:102EC000F6E7D9F800100D80F2E70D70F0E719F879
:102ED000041B8DF8001000208DF80100EA46012047
:102EE00003E059F804AB4FF0FF3061074FF00001E9
:102EF00002D40DE008F101018846B9420FDA80459D
:102F0000F8DB1AF808100029F4D108E008F10101F3
:102F100088468142FADB1AF808100029F6D1059894
:102F20005B46A0EB080721463846179A00F094FA52
:102F3000284400EB080507E04DE029E10DE01AF810
:102F4000010B5A4617999047B8F10108F7D25B4632
:102F500021463846179A13E142E00A220092C4F350
:102F600002524FF0000A022A08D059F804CB032A73
:102F70004FEAEC710AD00DE029E02AE009F10701DF
:102F800021F00702F2E802C1914609E00FFA8CFC39
:102F90004FEAEC71042A03D14FFA8CFC4FEAEC7132
:102FA000002907DA0A460021DCF1000C61EB02017E
:102FB0002D2202E0220504D52B228DF804200122C7
:102FC00003E0E20701D02022F7E7904659E00A210A
:102FD00002E010220DE010214FF0000A00910BE0FA
:102FE00010224FF0000A44F004040827009203E086
:102FF00008224FF0000A0092C4F30252022A05D0C0
:1030000059F804CB0021032A08D009E009F107018F
:1030100021F00702F2E802C1914605E01FFA8CFC9C
:10302000042A01D10CF0FF0C4FF00008220728D52C
:10303000702806D0009B83F0100353EA0A0305D0E2
:103040000EE040228DF80420012208E05CEA010233
:1030500006D030228DF804208DF80500022290461B
:10306000009B83F0080353EA0A030AD15CEA0102D9
:1030700001D1620705D530228DF804204FF00108F8
:103080007F1E582804D034A003900EA802900DE0B3
:1030900036A0F9E753466046009AFDF7C3F9844627
:1030A0000398825C0298401E029002705CEA010064
:1030B000F0D1029806A9081A00F1200A600702D58B
:1030C00024F4803400E00127574502DDA7EB0A0015
:1030D00000E0002000EB0A01009005984144401AEE
:1030E0000590E00306D45B462146179A059800F048
:1030F000B3F90544002706E001A85A46C05D1799B8
:1031000090476D1C7F1C4745F6DBE0030CD55B4602
:103110002146179A059800F09FF9054404E03020F5
:103120005A46179990476D1C0099481E0090002937
:10313000F5DC08E0029802995A460078491C029191
:10314000179990476D1CBAF10001AAF1010AF1DC50
:1031500065E100000928010030313233343536375B
:1031600038396162636465660000000030313233D3
:103170003435363738394142434445460000000073
:1031800000F058F90544761C307800287FF4ECAD47
:1031900019B02846BDE8F08F620700D4062709F170
:1031A000070222F0070CFCE80223E14603F0004886
:1031B0005FEA080C02D00FF2702C0DE05FEA045CAD
:1031C00002D50FF2682C07E05FEAC47C02D00FF250
:1031D000602C01E0AFF2700C4FF0FF3823F0004399
:1031E000CDF850C065280CD006DC452809D046280B
:1031F0001DD047283DD13DE0662818D067287ED1F4
:1032000038E00021112F01DB112000E0781CCDE90E
:10321000000106A90EA8FFF7DDFCDDE90F010E9AFB
:1032200003910021009207F1010A04914DE04FF053
:1032300000400097CDE9011006A90EA8FFF7CAFCCF
:10324000DDE90F0203920E9B11990022DDF80CA01C
:103250000093049211B9791C00EB010AB7EB0A0044
:1032600004D4C0F1FF3007F1010A0490AAEB070073
:10327000019044E0012F00DA01270021112F01DD28
:10328000112000E03846CDE9000106A90EA8FFF79D
:10329000A1FCDDE90F010E9A039100210491009237
:1032A000BA4621070CD40399514500DA8A46BAF18F
:1032B000010F05DD009AAAF10101515C302908D007
:1032C000B84202DA10F1040F06DA0121CDE901104B
:1032D00015E0AAF10101E9E7002805DC04990144A1
:1032E0000491AAEB000102E0411C514500DD8A4631
:1032F0000499401A401C01904FF0004002902007B2
:1033000004D40198504501DBCDF8048000208DF8ED
:103310004F0002980DF14F07B0F1004F25D02B2040
:103320000E9002984FF0020800280CDA40420290FA
:103330002D200E9007E00A210298FDF75DF830314C
:10334000029007F8011DB8F10001A8F10108F2DCB4
:1033500002980028EFD1791E0E980870307800F09E
:10336000200040F0450007F8020D12A8C01B00F134
:1033700007081498007800B1012000EB0A010198B9
:1033800001EBE07105984144401A401E0590E003AE
:1033900006D45B462146179A059800F05DF805446F
:1033A0001498007818B15A46179990476D1CE0039D
:1033B00024D55B462146179A059800F04DF8054440
:1033C0001CE00498002807DBDDE90301884203DDE7
:1033D0000098405C179901E0179930205A469047B1
:1033E000049805F10105401C04900198401E0190CD
:1033F00004D12E205A46179990476D1CBAF100014E
:10340000AAF1010ADDDC05E017F8010B5A4617990D
:1034100090476D1CB8F10001A8F10108F4DC5B468F
:103420002146179A0598ABE62D0000002B000000FE
:10343000200000002DE9F041044600251E461746F5
:10344000880404D405E039462020B0476D1C641E72
:10345000F9D52846BDE8F0812DE9F0410446002564
:103460001E469046C80301D5302700E02027880477
:1034700004D505E041463846B0476D1C641EF9D5B9
:103480002846BDE8F0810A68531C0B601070704735
:10349000024909680968886270470000040000203A
:1034A000064A914201D100F014B9054A914201D176
:1034B00000F00DB94FF0FF307047000020000020F1
:1034C0002400002010B500224FF480410248FDF78F
:1034D00071FD002010BD00000020014010B5012248
:1034E00091030248FDF766FD002010BD0020014059
:1034F00070B505460C46FFF7F1FF2046FEF786FA49
:103500002846FDF78FF92846BDE87040FDF7E0BB7F
:1035100010B588B0012420216846FCF74EFE1448FF
:10352000FDF7D6FBFF211248FDF734FB1048FDF7ED
:103530006FFA80B2FCF734FF00220E4BFCF7C1FE9D
:103540004FF066320C4BFCF74AFE02460B460BA1CD
:103550006846FFF70BFB6846FCF73AFE82B24FF471
:103560007A7369460848FEF7E5FC08B0204610BDAE
:103570002800002000FEAF4066660A404144432018
:1035800025660D0A000000003001002088B0FDF71C
:1035900027FDFEF766FEFEF765FDFEF73DFDFEF733
:1035A0002DFEFEF797FDFEF7E1FDFEF703FE00F0AE
:1035B0000BF80448FDF736F920216846FCF7FDFDBD
:1035C000FEE700002800002010B50DA0FFF7F2F87C
:1035D00011220EA1114800F043F8252210A1144831
:1035E00000F03EF82A2213A1164800F039F84522CF
:1035F00015A1194800F034F8BDE81040FFF710B9E4
:103600006D61696E546573742E6300007465737424
:1036100047415353656E736F720000003D370008D9
:103620007465737454656D7053656E736F720000CA
:103630009937000874657374414C41524D53656E5F
:10364000736F7200D93600087465737444656275CF
:1036500067506F7274000000DD360008FFF720BF6E
:1036600070B50446104B59601A615869401C586186
:1036700000219960D960FDF7CFF80B482830054646
:10368000FCF79BFE10B900F021F8A0472846FCF794
:1036900094FE18B900F01FF8FDF7BFF8FDF7BBF86E
:1036A000FFF798F870BD00007001002010B50446C7
:1036B0002046FCF78DFD214682B2BDE810404FF652
:1036C000FF730148FEF736BC300100207047FEF75B
:1036D00091BCFEF78FBC70477047000000B587B003
:1036E0001C2207A16846FCF74FFD6846FFF7DEFF86
:1036F000002803D0492109A0FFF7D0F807B000BD8A
:103700005B5444445D20446562756720506F727459
:1037100020546573742E2E2E0D0A000020457870FB
:1037200072657373696F6E204576616C756174653F
:103730006420546F2046414C5345000038B514496D
:103740001448FFF7D5FE0146142400221923104621
:103750000094FEF7F9FFFFF7B5FE014600221B2398
:1037600010460094FEF7F0FFFFF7B8FE0146002276
:103770001D2310460094FEF7E7FFFFF7C9FE014640
:103780000022212310460094FEF7DEFF38BD000022
:10379000E800002028000020704700004F4B002E5A
:1037A000200050415353004641494C004E554C4C6B
:1037B000004E6F74200020576173200049474E4F20
:1037C000524500204279746520002054657374735B
:1037D0002000204578706563746564200020746F54
:1037E0002062652067726561746572207468616E1D
:1037F000200020746F206265206C657373207468EC
:10380000616E20006F7220657175616C20746F208D
:103810000020746F206265206E6F74206571756181
:103820006C20746F200020456C656D656E742000FF
:10383000204D656D6F7279204D69736D6174636899
:103840002E002056616C756573204E6F7420576989
:103850007468696E2044656C7461200020596F752E
:103860002041736B6564204D6520546F20436F6D5C
:1038700070617265204E6F7468696E672C2057689E
:103880006963682057617320506F696E746C65734B
:10389000732E0020457870656374656420706F69CD
:1038A0006E74657220746F206265204E554C4C001A
:1038B0002041637475616C20706F696E746572204D
:1038C000776173204E554C4C00496E76616C69648B
:1038D00020466C6F6174205472616974002D2D2D27
:1038E0002D2D2D2D2D2D2D2D2D2D2D2D2D2D2D2D08
:1038F0002D2D2D2D00204661696C75726573200099
:103900002049676E6F726564200046756E63746946
:103910006F6E200020417267756D656E7420000027
:1039200030390008393900084B3900084F39000890
:10393000496E66696E697479004E6567617469766F
:103940006520496E66696E697479004E614E004467
:10395000657465726D696E61746500000000000039
:10396000000000010203040607080900000000012E
:103970000203040094390008000000202800000021
:10398000B42B0008BC3900082800002010060000F5
:10399000C42B000827000000000000000000000009
:1039A0000000000001000000100000000000000006
:0C39B0000024F4000000000000000000F3
:0400000508000131BD
:00000001FF
